S0190000457874656E73696F6E20534420636172642E73726563DD
S1130000F0440020F1010000ED010000ED010000CA
S1130010ED010000ED010000ED0100000000000012
S1130020000000000000000000000000ED010000DE
S1130030ED01000000000000ED010000ED010000F2
S1130040ED010000ED010000ED010000ED010000F4
S1130050ED010000ED010000ED010000ED010000E4
S1130060ED010000ED010000ED010000ED010000D4
S1130070ED010000ED010000ED010000ED010000C4
S1130080ED010000ED010000ED010000ED010000B4
S1130090ED010000ED010000ED010000ED010000A4
S11300A0ED010000ED010000ED010000ED01000094
S11300B0ED010000ED010000ED010000ED01000084
S11300C0ED010000ED010000ED010000ED01000074
S11300D0ED010000ED010000ED010000ED01000064
S11300E0ED010000ED010000ED010000ED01000054
S11300F0ED010000ED010000ED010000ED01000044
S1130100ED010000ED010000ED010000ED01000033
S1130110ED010000ED010000ED010000ED01000023
S1130120ED010000ED010000ED010000ED01000013
S1130130ED010000ED010000ED010000ED01000003
S1130140ED010000ED010000ED010000ED010000F3
S1130150ED010000ED010000ED010000ED010000E3
S1130160ED010000ED010000ED010000ED010000D3
S113017000000000ED010000ED010000ED010000B1
S113018010B5054C237833B9044B13B10448AFF3CD
S113019000800123237010BD3C04002000000000F7
S11301A0300F00000C4B43B10C480D4910B5AFF3B0
S11301B000800C48036823B910BD0A48036833B9AA
S11301C07047094B002BF7D0BDE810401847064B89
S11301D0002BF5D0184700BF00000000300F0000CE
S11301E040040020300F000000000000FEE7000083
S11301F008B5174B174A9A4210D0174B144A9A4223
S11302000CD2013B9B1A23F003030433134411491A
S113021051F8040B42F8040B9A42F9D10F4B104ADF
S11302209A420AD2013B9B1A23F00303043313447A
S1130230002142F8041B9342FBD10A4A0A4B23F0E3
S11302407F039360094B9847094B9847FEE700BF2B
S113025000000020300F00003C040020F0040020C7
S11302603C04002000ED00E000000000910D0000BF
S1130270D9090000014A024B1A60704738C10100D5
S11302800C00002082B00190019B23B100230133B4
S1130290019A9A42FBD802B07047000080B50A4B1D
S11302A08022C3F80424C3F844241E46174690460B
S11302B0C6F85884054D2846054CA047C6F8547422
S11302C02846A047F4E700BF00100E4020A1070015
S11302D08502000000000000F8B504464FF40062F7
S11302E0214BC3F85822214B1A6800239000910F28
S11302F080185941001849411D4A002318A7D7E91D
S11303000067801979411B4DA8471B4B98471B4A2E
S1130310136913F0020FFBD0184BDC601A46136903
S113032013F0010FFBD04FF400620F4BC3F85422BB
S11303300E4B1A6800239000910F80185941001841
S113034049410B4A002306A5D5E900450019694136
S1130350084CA047084B9847084B9868C0B2F8BDB2
S11303607F9FD5000000000000100E4074040020A0
S1130370809FD500810A0000010000200080004019
S11303802DE9F04105464FF40062194BC3F8582299
S1130390184B1A6800239000910F801859410018D7
S11303A04941154A002310A7D7E90067801979410C
S11303B0124CA047124B9847280E124EB047804665
S11303C0C5F30740B0470446C5F30720B0470746C6
S11303D0E8B2B047240444EA0864204340EA072012
S11303E0BDE8F081AFF300807F9FD50000000000DE
S11303F000100E4074040020809FD500810A000084
S113040001000020D9020000F8B50A24FF26284D77
S11304103046A847631E13F0FF04F9D14FF400627D
S1130420244BC3F85822244B1A6800239000910FE0
S11304308018594100184941204A00231AA5D5E9DA
S11304400045001969411E4CA0471E4B98474020A7
S1130450174CA04700201C4B98479520A047FF2627
S113046025463046A8470446FF28FAD04FF40062D8
S1130470104BC3F85422104B1A6800239000910FBC
S113048080185941001849410C4A002306A7D7E9AE
S11304900067801979410A4DA8470A4B98472046BE
S11304A0F8BD00BFAFF300807F9FD50000000000BF
S11304B0D902000000100E4074040020809FD50073
S11304C0810A0000010000208103000000000000F8
S11304D02DE9F04182B080460F4616464FF4006283
S11304E02D4BC3F858222D4B1A6800239000910F0E
S11304F08018594100184941294A002324A5D5E907
S1130500004500196941274CA047274B9847FF2510
S1130510264C2846A047FF28FBD148F04000234C36
S1130520A0473846224B98473046A047FF238DF812
S113053007309DF80730DBB2FF2B09D1FF25284691
S1130540A0478DF807009DF80730DBB2FF2BF6D0EB
S11305504FF40062104BC3F85422104B1A68002366
S11305609000910F80185941001849410C4A00230A
S113057007A5D5E90045001969410A4CA0470A4B73
S113058098479DF8070002B0BDE8F081AFF3008002
S11305907F9FD5000000000000100E40740400206E
S11305A0809FD500810A000001000020D9020000CC
S11305B0810300002DE9F0410C469046FF220146DC
S11305C01220194B984750BBA044444513D2FF2630
S11305D0164D3046A847FE28FBD104F50077304677
S11305E0A84704F8010BA742F9D13046A847304682
S11305F0A847A045EDD8FF2200210C200A4B9847BC
S1130600FF250A4C2846A047FF28FBD048B9FF2500
S1130610064C2846A047FF28FBD1BDE8F081044BD7
S11306209847034B984700BFD1040000D90200004B
S11306309D0200002DE9F8430C469046FF22014636
S113064019201B4B984778BBFF201A4B9847A044AE
S113065044451DD24FF0FC09164DFF274846A847D4
S113066004F5007614F8010BA847B442FAD100202F
S1130670A8473846A8473846A84706463846A847F4
S1130680FF28FBD106F00F06052E0FD1A045E5D8B3
S1130690FD20084CA047FF20A047FF252846A0477F
S11306A0FF28FBD1BDE8F883034B9847024B9847DA
S11306B0D1040000D90200009D02000000000000E7
S11306C02DE9F04182B080460F4616464FF4006291
S11306D02F4BC3F858222F4B1A6800239000910F18
S11306E080185941001849412B4A002326A5D5E911
S11306F0004500196941294CA047294B9847FF251B
S1130700284C2846A047FF28FBD148F04000254C40
S1130710A0473846244B98473046A047FF238DF81E
S11307200730002300939DF80730DBB2FF2B09D17B
S1130730FF252846A0478DF807009DF80730DBB257
S1130740FF2BF6D04FF0FF30174B984700904FF433
S113075000620F4BC3F854220E4B1A68002390001A
S1130760910F80185941001849410B4A002306A5EE
S1130770D5E9004500196941084CA047084B984742
S1130780009802B0BDE8F0817F9FD5000000000012
S113079000100E4074040020809FD500810A0000E0
S11307A001000020D90200008103000000000000C5
S11307B070B582B03C4B1A6842F002021A609A6B20
S11307C0202161F30F229A631A6842F001021A6031
S11307D003F559234FF40062C3F85422C3F84422AA
S11307E0C3F804220C24FF26304D3046A847631E6C
S11307F013F0FF04F9D12C4B1A6842F002021A607C
S11308009A6B082161F30F229A631A6842F001027D
S11308101A60274CA0470128FCD187224FF4D571D8
S11308200820244B9847244B18601B68B3F5D57FE8
S113083033D101238DF807309DF807308BB10125A2
S113084000261E4C2A4631463720A0472A464FF040
S113085080412920A0478DF807009DF80730002B20
S1130860F0D1012200213A20124B98470090144BFA
S11308701A6800239000910F8018594100184941CB
S1130880104A002306A5D5E90045001969410E4C1C
S1130890A0470E4B984702B070BD0D4B984700BF60
S11308A07F9FD5000000000000800040D9020000B6
S11308B009040000C106000058040020D10400000F
S11308C074040020809FD500810A000001000020EC
S11308D09D020000314B4FF400129A604FF48002E5
S11308E09A604FF40061C3F808124FF08042C3F8D5
S11308F008244FF4C000986198629863C3F81412F6
S1130900C3F82812C3F83812C3F81424C3F82824EF
S1130910C3F83824A3F58053214A9A659A6A42F0B1
S113092002029A62A3F558235A6842F001025A60FF
S11309305A6842F010025A605A686FF341025A60D2
S11309405A686FF382025A605A680B2161F31342AA
S11309505A609A6B6FF300029A639A6B42F0020238
S11309609A639A6B42F008029A639A6B6FF382025D
S11309709A639A6B6FF307129A639A6B202161F35F
S11309800F229A639A6B6FF317429A639A6B6FF311
S11309901F629A6301221A60704700BF00100E4064
S11309A0280000AA094B0A4A9A619A6C42F0010293
S11309B09A641A46936C13F0010FFBD0054B4FF069
S11309C02A429A6505221A60704700BF00080E404B
S11309D0480000AA00000E4080B5ADF5806D00AF60
S11309E0134B9847134B9847134B9847134B98470F
S11309F0134B98477B1E07F2FF31402203F8012F67
S1130A008B42FBD1ADF5806D4FF4806239464FF4D3
S1130A10FA600C4B98474FF4806269464FF4FA60D1
S1130A20094B9847094A13790133DBB21371FAE78A
S1130A3075020000510A0000A5090000D508000055
S1130A40B107000035060000B50500005804002079
S1130A50074B93F84C2042F0010283F84C20054ADE
S1130A605A60054B1A600020044B1870704700BF91
S1130A707C04002038C101007404002078040020A4
S1130A8053B94AB9002908BF00281CBF4FF0FF31F1
S1130A904FF0FF3000F07AB9ADF1080C6DE904CEE7
S1130AA000F006F8DDF804E0DDE9022304B0704745
S1130AB02DE9F0478C460D460446089E002B51D183
S1130AC08A4217466DD9B2FA82FEBEF1000F0BD0EE
S1130AD0CEF1200C01FA0EF520FA0CFC02FA0EF706
S1130AE04CEA050C00FA0EF44FEA174A250CBCFB3D
S1130AF0FAF81FFA87F90AFB18CC45EA0C4508FBFB
S1130B0009F3AB420AD9ED1908F1FF3280F02381D1
S1130B10AB4240F22081A8F102083D44ED1AA4B290
S1130B20B5FBFAF00AFB105544EA054400FB09F949
S1130B30A14509D9E41900F1FF3380F00A81A145E8
S1130B4040F2078102383C44A4EB090440EA08401F
S1130B500021002E61D024FA0EF400233460736067
S1130B60BDE8F0878B4207D9002E54D0002186E8D7
S1130B7021000846BDE8F087B3FA83F1002940F06C
S1130B808E80AB4202D3824200F2FA80841A65EB73
S1130B9003050120AC46002E3FD086E81010BDE8C6
S1130BA0F08712B90127B7FBF2F7B7FA87FEBEF157
S1130BB0000F34D1EB1B3A0C1FFA87FC0121B3FB65
S1130BC0F2F8250C02FB183345EA03450CFB08F345
S1130BD0AB4207D9ED1908F1FF3002D2AB4200F263
S1130BE0D1808046ED1AA3B2B5FBF2F002FB10559A
S1130BF043EA05440CFB00FCA44507D9E41900F1C1
S1130C00FF3302D2A44500F2B8801846A4EB0C04CA
S1130C1040EA08409DE731463046BDE8F087CEF112
S1130C20200405FA0EF307FA0EF720FA04F83A0C3A
S1130C3025FA04F448EA0308B4FBF2F14FEA184534
S1130C4002FB11441FFA87FC45EA044501FB0CF33F
S1130C50AB4200FA0EF409D9ED1901F1FF3080F02E
S1130C608A80AB4240F2878002393D44EB1A1FFA76
S1130C7088F5B3FBF2F002FB103345EA034500FBB1
S1130C800CF3AB4207D9ED1900F1FF386FD2AB4238
S1130C906DD902383D44EB1A40EA01418FE7C1F1B6
S1130CA0200722FA07F88B4005FA01F448EA030307
S1130CB020FA07FE4FEA134CFD404EEA040EB5FB42
S1130CC0FCF94FEA1E440CFB19551FFA83F844EA59
S1130CD0054509FB08F4AC4202FA01F200FA01FAF4
S1130CE008D9ED1809F1FF3043D2AC4241D9A9F13A
S1130CF002091D442D1B1FFA8EFEB5FBFCF00CFBF4
S1130D0010554EEA054400FB08F8A04507D9E4183D
S1130D1000F1FF3529D2A04527D902381C4440EA06
S1130D200940A4EB0804A0FB02894C45C6464D4685
S1130D3015D312D056B1BAEB0E0364EB050404FAD2
S1130D4007F7CB401F43CC40376074600021BDE8F7
S1130D50F0871846F8E69046E0E6C245EAD2B8EBDA
S1130D60020E69EB03050138E4E72846D7E740465D
S1130D7091E78146BEE7014678E702383C4445E7FF
S1130D80084608E7A8F102083D442BE7704700BF76
S1130D9070B50F4E0F4D761BB61018BF002405D04A
S1130DA0013455F8043B9847A642F9D10A4E0B4D3D
S1130DB0761B00F0A7F8B61018BF002406D0013443
S1130DC055F8043B9847A642F9D170BD70BD00BFE9
S1130DD0100F0000100F0000180F0000100F00008B
S1130DE0024B13B1024800F005B870470000000040
S1130DF0010E0000002301461A46184600F01EB8F2
S1130E0038B50A4C0A4D641BA4100AD004F180437F
S1130E10013B05EB8305013C55F804399847002C48
S1130E20F9D1BDE8384000F077B800BF280F0000C2
S1130E30240F0000704700BF704700BF2DE9F8433E
S1130E402C4D0646286898460F469146FFF7F2FF58
S1130E50294B1C68D4F84831002B3ED05A681F2A0D
S1130E601CDC02F1010E76B103EB82010124C1F80E
S1130E708890D3F8880194402043022EC3F8880157
S1130E80C1F8088123D00232C3F804E0286843F88B
S1130E902270FFF7D1FF0020BDE8F883174B0BB396
S1130EA04FF4C870AFF300800346D8B1D4F848219A
S1130EB00260002141600A46C4F848014FF0010E67
S1130EC0C0F88811C0F88C11002EDCD0CCE7D3F820
S1130ED08C110C43C3F88C41D5E704F5A673C4F810
S1130EE04831BBE72868FFF7A7FF4FF0FF30BDE8A4
S1130EF0F88300BF38040020000F00000000000049
S1130F0010000020F8B500BFF8BC08BC9E4670472E
S1130F10E10D0000A5010000F8B500BFF8BC08BC55
S10B0F209E46704781010000A8
S10B0F2888FBFF7F01000000BB
S1130F30BFF35F8F0138FBD17047000038C1010057
S1130F4000000000FC02002064030020CC03002009
S1130F50000000000000000000000000000000008D
S1130F60000000000000000000000000000000007D
S1130F70000000000000000000000000000000006D
S1130F80000000000000000000000000000000005D
S1130F90000000000000000000000000000000004D
S1130FA0000000000000000000000000000000003D
S1130FB0000000000000000000000000000000002D
S1130FC0000000000000000000000000000000001D
S1130FD0000000000000000000000000000000000D
S1130FE000000000000000000100000000000000FC
S1130FF00E33CDAB34126DE6ECDE05000B000000C1
S113100000000000000000000000000000000000DC
S113101000000000000000000000000000000000CC
S113102000000000000000000000000000000000BC
S113103000000000000000000000000000000000AC
S10F13600000000000000000CC0400208D
S9030000FC
