S01000004641545F746573742E737265631A
S113000088510020B9090000B5090000B5090000B5
S1130010B5090000B5090000B509000000000000A2
S1130020000000000000000000000000B50900000E
S1130030B509000000000000B5090000B509000082
S1130040B5090000B5090000B5090000B5090000B4
S1130050B5090000B5090000B5090000B5090000A4
S1130060B5090000B5090000B5090000B509000094
S1130070B5090000B5090000B5090000B509000084
S1130080B5090000B5090000B5090000B509000074
S1130090B5090000B5090000B5090000B509000064
S11300A0B5090000B5090000B5090000B509000054
S11300B0B5090000B5090000B5090000B509000044
S11300C0B5090000B5090000B5090000B509000034
S11300D0B5090000B5090000B5090000B509000024
S11300E0B5090000B5090000B5090000B509000014
S11300F0B5090000B5090000B5090000B509000004
S1130100B5090000B5090000B5090000B5090000F3
S1130110B5090000B5090000B5090000B5090000E3
S1130120B5090000B5090000B5090000B5090000D3
S1130130B5090000B5090000B5090000B5090000C3
S1130140B5090000B5090000B5090000B5090000B3
S1130150B5090000B5090000B5090000B5090000A3
S1130160B5090000B5090000B5090000B509000093
S113017000000000B5090000B5090000B509000041
S113018010B5054C237833B9044B13B10448AFF3CD
S113019000800123237010BD4404002000000000EF
S11301A0483900000C4B43B10C480D4910B5AFF36E
S11301B000800C48036823B910BD0A48036833B9AA
S11301C07047094B002BF7D0BDE810401847064B89
S11301D0002BF5D0184700BF00000000483900008C
S11301E0480400204839000000000000314B4FF45F
S11301F000129A604FF480029A604FF40061C3F8D1
S113020008124FF08042C3F808244FF4C0009861EC
S113021098629863C3F81412C3F82812C3F838120A
S1130220C3F81424C3F82824C3F83824A3F580534E
S1130230214A9A659A6A42F002029A62A3F5582307
S11302405A6842F001025A605A6842F010025A6039
S11302505A686FF341025A605A686FF382025A6017
S11302605A680B2161F313425A609A6B6FF30002D0
S11302709A639A6B42F002029A639A6B42F0080204
S11302809A639A6B6FF382029A639A6B6FF3071205
S11302909A639A6B202161F30F229A639A6B6FF32E
S11302A017429A639A6B6FF31F629A6301221A6072
S11302B0704700BF00100E40280000AA10B5044685
S11302C04FF400620F4BC3F85822052000210E4B57
S11302D098470E4A136913F0020FFBD00B4BDC60F6
S11302E01A46136913F0010FFBD04FF40062054B5B
S11302F0C3F8542205200021034B9847034B986808
S1130300C0B210BD00100E4039090000008000404A
S11303102DE9F04106464FF400620E4BC3F8582213
S11303200A2000210C4B9847300E0C4DA8478046FC
S1130330C6F30740A8470446C6F30720A847074664
S1130340F0B2A847240444EA0864204340EA0720A2
S1130350BDE8F08100100E4039090000BD02000024
S113036070B50A24FF26154D3046A847631E13F0C6
S1130370FF04F9D14FF40062114BC3F858220A204C
S11303800021104B984740200C4CA04700200E4BF6
S113039098479520A047FF2625463046A84704469F
S11303A0FF28FAD04FF40062054BC3F854220A2008
S11303B00021044B9847204670BD00BFBD020000D9
S11303C000100E4039090000110300002DE9F0412E
S11303D082B080460F4616464FF400621A4BC3F8AB
S11303E058220A200021194B9847FF25184C28460B
S11303F0A047FF28FBD148F04000154CA0473846E1
S1130400144B98473046A047FF238DF807309DF8DA
S11304100730DBB2FF2B09D1FF252846A0478DF812
S113042007009DF80730DBB2FF2BF6D04FF40062D3
S1130430054BC3F854220A200021044B98479DF829
S1130440070002B0BDE8F08100100E403909000039
S1130450BD0200001103000070B50C46FF220146E6
S11304601820134B9847F8B9FF20124DA847FE20D7
S1130470A84704F5007614F8010BA847A642FAD160
S113048000200C4CA047FF20A047FF20A0470646B1
S1130490FF252846A047FF28FBD106F00F06052EAE
S11304A001D0054B984770BD034B9847DCE700BF6C
S11304B0CD030000BD02000041080000F8B50C4661
S11304C0FF22014611200E4B9847A8B9FF260D4D77
S11304D03046A847FE28FBD104F50077FF26094DD6
S11304E03046A84704F8010BA742F9D1FF20054C78
S11304F0A047FF20A047F8BD034B9847E6E700BF9D
S1130500CD030000BD020000410800002DE9F041C8
S113051082B080460F4616464FF400621D4BC3F866
S113052058220A2000211C4B9847FF251B4C2846C3
S1130530A047FF28FBD148F04000184CA04738469C
S1130540174B98473046A047FF238DF80730002308
S113055000939DF80730DBB2FF2B09D1FF25284615
S1130560A0478DF807009DF80730DBB2FF2BF6D0CB
S11305704FF0FF300A4B984700904FF40062054B50
S1130580C3F854220A200021034B9847009802B074
S1130590BDE8F08100100E4039090000BD020000E2
S11305A01103000070B582B0294B1A6842F00202B0
S11305B01A609A6B202161F30F229A631A6842F041
S11305C001021A6003F559234FF40062C3F8542260
S11305D0C3F84422C3F804221424FF261D4D3046D8
S11305E0A847631E13F0FF04F9D11B4CA047012850
S11305F0FCD187224FF4D5710820184B9847B0F5E9
S1130600D57F01D0164B984701238DF807309DF80C
S113061007308BB101250026124C2A46314637207B
S1130620A0472A464FF080412920A0478DF80700B3
S11306309DF80730002BF0D1012200213A20074B0E
S1130640984700900A200021074B984702B070BDDC
S113065000800040BD020000610300000D050000A1
S113066041080000CD03000039090000054A536920
S113067013F0020FFBD0034BDA6960F30802DA616E
S1130680704700BF0080024051B170B504460D466A
S11306900544044E14F8010BB047A542FAD170BDCD
S11306A0704700BF6D06000010B50A20024CA04739
S11306B00D20A04710BD00BF6D06000038B50446EC
S11306C00E4B5A6842F400225A605B68C3F3C0437D
S11306D0002B0CBF10250825094B984704FB05F493
S11306E0B0FBF4F4A4B22CB1044B1A6A64F30F0205
S11306F01A6238BD034B9847F6E700BF00800240FA
S1130700790800004108000008B50143134BC3F801
S11307100814C3F81814C3F82814C3F83814A3F53C
S113072080530F4A9A659A6A42F400729A620D489D
S11307300D4B98470D4B5A6842F0C0025A601A6834
S113074042F008021A601A6842F040021A601A461F
S1130750536913F0020FFBD008BD00BF00100E4018
S1130760280000AA38C10100BD0600000080024034
S11307700FB42DE9F043A1B028AC54F8046B642203
S1130780002106A8294B98471F94002E44D03378A3
S1130790002B41D000252C46DFF89C90DFF89C808C
S11307A0234F25E01F9B1A1D1F920A2201A91868D6
S11307B0C84701A906AB5819C04701A8B847054462
S11307C013E01F9B1A1D1F92102201A91868C84725
S11307D001A906AB5819C04701A8B847054404E06D
S11307E020AA2A4402F8683C01350134335D9BB1E8
S11307F0252BF5D10134335D642BD3D0782BE0D095
S1130800632BF2D11F9B1A1D1F9220AA2A441B6836
S113081002F8683C0135E8E7642106A8054B9847CF
S113082021B0BDE8F04304B0704700BF05330000B9
S11308308134000089060000CD310000A13300009E
S113084080B50B4B8022C3F80424C3F844241D460E
S113085016461746C5F858744FF47A700021054CB3
S1130860A047C5F854644FF47A700021A047F1E71B
S113087000100E40FD08000008B5174B1B6803F07C
S11308800703062B1FD8DFE803F020061E1E04080A
S11308902200124808BD124B9847124B9B6C13F070
S11308A0010F0ED00F4B9B6CC3F30123012B06D019
S11308B07BB10D4A0D48022B18BF104608BD0C48E9
S11308C008BD074B9847064B98470A4808BD064899
S11308D008BD094808BD00BF00000E4000B4C404B0
S11308E04108000000080E4040420F00001BB70002
S11308F000127A0038C1010000093D0070B50446B9
S11309000E46094B9847A0FB044500FB065543F2ED
S1130910B062002343F2AF60002100196941034C27
S1130920A047034B984770BD790800003D2E000096
S1130930010000200000000070B504460E460C4B78
S11309409847A0FB044500FB06550A4A002306A16C
S1130950D1E9000100196941074CA047074B9847AA
S113096070BD00BFAFF300807F9FD5000000000082
S113097079080000809FD5003D2E00000100002072
S1130980094B0A4A9A619A6C42F001029A641A4627
S1130990936C13F0010FFBD0054B4FF02A429A657C
S11309A005221A60704700BF00080E40480000AAE4
S11309B000000E40FEE7000008B5174B174A9A42A4
S11309C010D0174B144A9A420CD2013B9B1A23F0C5
S11309D0030304331344114951F8040B42F8040B84
S11309E09A42F9D10F4B104A9A420AD2013B9B1A00
S11309F023F0030304331344002142F8041B9342FD
S1130A00FBD10A4A0A4B23F07F039360094B9847B2
S1130A10094B9847FEE700BF00000020483900005A
S1130A2044040020881100204404002000ED00E06C
S1130A30000000004D310000292D0000014A024B46
S1130A401A60704738C101000C0000202DE9F843FA
S1130A5004464FF0FF33C0F840320023C0F844325C
S1130A604362984B9847236B002B00F0078104F1F5
S1130A7040050122294600209847002800F0028101
S1130A80B4F83E224AF655239A4240F0FF8094F887
S1130A903F2294F83E3203EB02234AF65522934256
S1130AA040F0F88094F802320F2B09D8DFE803F005
S1130AB0BE080808080D0D080808080D0D080D0DDE
S1130AC0062B8CBF0023012300E00123002B00F040
S1130AD0AD8094F8092294F808321B0403EB0263F6
S1130AE094F80622134494F8072203EB0223E361EB
S1130AF0236B01222946E0699847002800F0CE8044
S1130B0094F84C2094F84B3003EB0223B3F5007FA8
S1130B1040F0C88094F84D00207094F84F6094F829
S1130B204E1001EB062C1FFA8CFC94F8505094F8EC
S1130B30528094F8512002EB082E1FFA8EFEA4F87E
S1130B4028E094F8577094F8563013EB072370D0CC
S1130B50236294F86F9094F86E703F0407EB096772
S1130B6094F86C904F4494F86D9007EB0927A760B4
S1130B7094F8719094F8707007EB09272783276A1B
S1130B8007FB05F90CEB0907E7604FEA4E1E0EF26E
S1130B90FF1E4FEA6E272761E769674467614F4488
S1130BA0676094F83FE294F83E7207EB0E274AF62A
S1130BB0552E77457AD102EB0822520102F2FF1238
S1130BC0002AB8BF02F2FF124FEA6228002B40D07D
S1130BD01F4694F8542094F8533013EB02230DD19C
S1130BE094F8633094F86220120402EB036294F8E0
S1130BF060301A4494F8613002EB032301EB0622BF
S1130C00424405FB07229B1A002853D0B3FBF0F3A0
S1130C1040F6F472934251D94FF6F472934227D9B5
S1130C20012384F82D300020BDE8F8830023E3611C
S1130C305EE794F8679094F866703F0407EB0967E1
S1130C4094F864904F4494F8659007EB0927276261
S1130C507FE794F8677094F866301B0403EB07632E
S1130C6094F864703B4494F8657003EB0727B0E78D
S1130C700020A06084F82D00BDE8F8834FF0FF3019
S1130C80BDE8F8834FF0FF30BDE8F8836FF0020051
S1130C90BDE8F8836FF00300BDE8F8834FF0FF3040
S1130CA0BDE8F8836FF00100BDE8F8836FF002003F
S1130CB0BDE8F8836FF00400BDE8F8836FF004002A
S1130CC0BDE8F8830526000090F82D302BB10239D9
S1130CD00378406803FB01007047023902784368D7
S1130CE002FB0131008D400101EB6020704738B5F3
S1130CF00D461146046B1A462846A04738BD38B540
S1130D000D461146446B1A462846A04738BD0000DC
S1130D102DE9F8430546984690F82D3043B939B982
S1130D20036993422FD9C369C0680344981814E037
S1130D302878B2FBF0F600FB16293EB10024164FCA
S1130D402846B84701460134A642F9D1B1F1FF3F24
S1130D501CD02846114B98474844B8F1000F05D0E1
S1130D602B6B012241469847BDE8F883D5F8403201
S1130D7098420ED0C5F840022B6B012205F14001C8
S1130D809847BDE8F8830020BDE8F8830020BDE85B
S1130D90F8830120BDE8F88371260000C90C000027
S1130DA0F8B5466B6EB31F461546044690F82D30D1
S1130DB09BB991B90369934225D9C069E368184482
S1130DC010441FB101223946B047F8BDC4F84002AF
S1130DD0012204F14001B047F8BD3FB120460B4B5E
S1130DE09847012239462844B047F8BD2046074BAE
S1130DF098472844C4F84002012204F14001B04756
S1130E00F8BD0020F8BD0020F8BD00BFC90C0000EB
S1130E10806870472DE9F04FCBB082460291019271
S1130E200393012104A8524B98474FF0000B514FF4
S1130E30DFF85881DFF858918BE02046C04780B135
S1130E40002104A84A4B98472034A6427FD0254667
S1130E502046B8470028F0D0214604A8464B9847BE
S1130E60F2E7214604A8C84700B304A8434B9847B7
S1130E700199434B984720B9002104A83C4B98475B
S1130E80E2E720686168A268E368039E30607160ED
S1130E90B260F36028696969AA69EB6930617161BC
S1130EA0B261F36101204BB0BDE8F08F2046354BB1
S1130EB098470028C8D000234693479348938DF859
S1130EC02431631E0DF21712E01D13F8011F02F8FE
S1130ED0011F9842F9D12B7A8DF82131203B18BF9C
S1130EE001236A7A8DF82221202A18BF0123AA7AC5
S1130EF08DF82321202A11D09DF818312E2B14BFF0
S1130F002E2320238DF82031019946A81C4B9847A5
S1130F1050B9002104A8164B984795E7002BEBD154
S1130F2020238DF82031EFE728686968AA68EB6808
S1130F30039E30607160B260F36028696969AA69D0
S1130F40EB6930617161B261F3610120ABE70BF1D0
S1130F50010B00235A46029950460B4CA04720B17E
S1130F600AF140040AF5107671E700209BE700BF00
S1130F70351E0000ED1E0000551E0000C71E0000B7
S1130F80292400005B1F0000110D0000FD1E00005D
S1130F90231F00002DE9F04F83B081460091019298
S1130FA04FF0000A184FDFF86C80DFF86CB01CE0DB
S1130FB02034B44217D02046B8470028F8D1204640
S1130FC0C0470028F4D12046D8470028F0D00B228F
S1130FD0019920460D4B98470028E9D10123184672
S1130FE003B0BDE8F08F0AF1010A002352460099CC
S1130FF04846074CA04703460028F0D009F14004B6
S113100009F51076D7E700BFED1E00005D3500003E
S1131010110D0000FD1E00005B1F00002DE9F04FC4
S113102085B0446B002C43D0039302920191054692
S11310304FF0000BDFF888801E4EDFF888A02AE00E
S11310402034BC4225D005F1400900942046B04725
S11310500028F5D12046D0470028F1D10098164B3E
S113106098470028ECD00B2202990098134B98471C
S11310700028E5D1009B1A46039BD3616B6B0122C8
S11310804946D5F8400298470346184605B0BDE8DE
S1131090F08F0BF1010B00235A4601992846C047F3
S11310A003460028F1D005F1400405F51077CAE79E
S11310B00023EAE7ED1E00005B1F00005D35000021
S11310C0110D0000FD1E0000012070470020704734
S11310D00120704743683BB10B605A684A605A6804
S11310E09AB111605960704703683BB11A680A608D
S11310F04B601A683AB151601960704701604160F1
S11311000B604B6070470160F6E74160EAE700005E
S113111010B50E4B1C68B4B1236863B162685A60A1
S1131120636863B122681A6021460948094B9847ED
S1131130A4F23C4010BD6268044B1A60F0E72268D8
S1131140024B5A60F0E7002010BD00BF600400208D
S113115068040020D51000002DE9F843124B9C6868
S1131160F4B1064600F11408104F00F58C7901E043
S1131170646894B1A4F23C45B542F9D04146A4F563
S11311808560B8470028F3D04946A4F54970B847AC
S11311900028EDD00120BDE8F8830020BDE8F883E5
S11311A00020BDE8F88300BF60040020292400006B
S11311B02DE9F047CAB080468A461C481C4B984724
S11311C0044640461B4B9847431C002B22DD1E4619
S11311D00025194FDFF854904FF4827309AA294669
S11311E04046B847B0F1FF3F1BD001AB09AA2146E6
S11311F04846124CA047B0B101A8114B984703468A
S113120058B1BDF81830BDF81E4004EB0344013555
S1131210AE42E1D1CAF80040012318464AB0BDE805
S1131220F0870023F9E70023F7E700BF70040020EC
S1131230110E0000BF22000015230000150E00004F
S1131240891F00002DE9F04F85B0064600921A462A
S113125001934FF0FF330393354B93F81080B1FBA8
S1131260F8F708FB171A13465344984534BFA8EB04
S11312700A08DDF80480D0F82842A7420AD017B142
S1131280631C9F4209D075680024A74224D9DFF863
S1131290B8900DE0D0F82C5232E0D0F82C52F4E79C
S11312A00395029DB5F1FF3F19D00134A74223D025
S11312B002AB224631461F48C8470028F0D12946D0
S11312C01C481D4B98470346029022463146194854
S11312D0DFF878B0D847E3E7B5F1FF3F0CD1144805
S11312E010F8102F531E01990B44B3FBF2F203A91B
S11312F0124B9847C0B1039DC6F82C52C6F8287209
S11313000C4C294620460E4B98474346009A00EB66
S11313100A0120460B4CA047002808BF4FF00008E4
S1131320404605B0BDE8F08F4FF00008F8E700BF75
S11313306004002070040020712600000D290000C4
S1131340C90C0000FF0C0000CD100000D1100000FB
S11313502DE9F04F85B0054601929A462C4B1B7C33
S1131360B1FBF3F603FB16190AEB0902934238BFEB
S1131370A3EB090AD0F82842A6420CD016B1631C8C
S11313809E420FD06F680024A64224D9DFF89480CF
S1131390DFF894B00DE0D0F82C72B7F1FF3F21D103
S11313A000202FE0D0F82C72EEE7039F0134A64210
S11313B011D003AB224629461648C0470028F4D171
S11313C039461448D8470346039022462946114813
S11313D0114FB847E9E7B7F1FF3F16D0C5F82C72B3
S11313E0C5F828620B4C394620460C4B98475346A7
S11313F0019A00EB09012046094CA047002814BFBC
S11314005046002005B0BDE8F08F0020FAE700BF89
S11314106004002070040020D1100000C90C0000FA
S1131420EF0C0000CD1000007126000008B500F29A
S11314303C41D0F83C3463B1D0F840245A60D0F831
S113144040345BB1D0F83C241A600748074B9847F6
S113145008BDD0F84024044B9A60F0E7D0F83C244F
S1131460014BDA60F1E700BF60040020D5100000F2
S11314702DE9F0438BB081463F4B98470446002842
S11314805CD000F114074FF482752A4600213846D7
S1131490DFF81081C04704F58C762A4600213046D7
S11314A0C047009533462A4639464846334DA84737
S11314B0B0F1FF3F46D02046314B9847002846D133
S11314C0237D002B48D12F482F4B9847206002AB37
S11314D0324621682B482D4DA847002847D002A842
S11314E02B4B9847002842D002AB03CBC4F81C0214
S11314F0C4F8201219889B78A4F8241284F82632A0
S1131500099BE3600022A260BDF81C10BDF82230E4
S113151003EB014363604FF0FF33C4F83034C4F885
S113152034242261C4F82832C4F82C32154D2146E3
S11315302846184B98472846174B984720460BB027
S1131540BDE8F0832046154B98470024F6E7204673
S1131550124B98470024F1E721463846104B984730
S11315600028B4D120460D4B98470024E6E72046D6
S11315700A4B98470024E1E711110000B123000051
S11315805911000070040020110E0000150E000017
S1131590911F0000C9100000392600002D1400001E
S11315A0B11100000533000038B5094C0023636015
S11315B02360E360A36004F50B612046054DA84752
S11315C004F6F4412046A8470123C4F8FC3C38BD86
S11315D060040020D510000038B505460C460A4BBF
S11315E0D3F8FC3C6BB10848056444641030074BE5
S11315F09847034618B90121034AC2F8001D18464A
S113160038BD034B9847EEE7600400204D0A000004
S1131610A915000010B50A4BD3F8FC3C63B1084B84
S11316209B6C03B19847064C04F11000054B984796
S1131630E36C03B1984710BD034B9847EFE700BF35
S11316406004002039260000A91500002DE9F04FA0
S113165093B080460C46BD4BD3F8FC3C9BB1BB4BCE
S1131660D3F8003D002B00F0F281B8F1000F00F038
S1131670F081002C00F0EF812046B54B9847611EA5
S11316800024224605E0B34B9847E8E744F0010400
S11316900132824280F2BE8011F8013F2B3B4C2B79
S11316A0F6D801A555F823F0E917000091160000BB
S11316B0911600009116000091160000911600008A
S11316C0911600009116000091160000911600007A
S11316D0911600009116000091160000911600006A
S11316E0911600009116000091160000911600005A
S11316F0911600009116000091160000911600004A
S1131700E31700000F180000911600009116000066
S11317109116000091160000911600009116000029
S11317209116000091160000911600009116000019
S11317309116000091160000911600009116000009
S1131740911600008D1600009116000091160000FD
S11317509116000091160000DD170000911600009C
S113176091160000911600009116000091160000D9
S113177091160000911600009116000091160000C9
S1131780E31700000F1800009116000091160000E6
S113179091160000911600009116000091160000A9
S11317A09116000091160000911600009116000099
S11317B09116000091160000911600009116000089
S11317C0911600008D16000091160000911600007D
S11317D09116000091160000DD17000044F0320459
S11317E056E744F0260453E714F0010F02D044F006
S11317F002044DE714F0020F02D044F0310447E72D
S113180014F0040F3FF444AF44F0270440E744F0DD
S113181008043DE74D4B5B6C5BB14C4B9B6C03B1D7
S1131820984714F0010907D114F0200F0CD10025BA
S113183005E104F0D904F0E74046474B98470546D4
S1131840002840F0FA80EFE7404B5B6C002B00F07F
S11318500681424B98470546002800F0008100F1BC
S1131860140B4FF482763246002158463C4FB84759
S113187005F58C7A324600215046B8470096534607
S1131880324659464046374EB047B0F1FF3F42D04A
S11318902846354B98470746002840D12B7D002B1E
S11318A041D13248324B984728600AAB52462968E6
S11318B02E48304EB04701283FD02A46002342F834
S11318C0043F0123194629482B4EB047002838D03D
S11318D0DFF8BCB0514607A8D847002F5AD005F509
S11318E007763A4607A93046244B98470596324670
S11318F029681E48224B984700285ED0013742F2DF
S11319000F739F42E6D1696818481E4B98472846D2
S11319101D4B984787E028461B4B984783E0284691
S1131920194B98477FE029465846184B984700289A
S1131930BBD12846144B984775E02846124B98476C
S113194071E02846104B98476DE000BF600400200A
S113195081340000A9150000711400001111000069
S113196005330000B1230000591100007004002069
S1131970110E0000150E00008129000091210000C5
S1131980950F0000812800002D140000B111000003
S1131990BD20000005F5077207AB03CBC5F81C0298
S11319A0516019889B7811819372059229682F4898
S11319B02F4B984708B101378CE742F20F739F42CF
S11319C0A1D029680023029301936B680093059BBF
S11319D052462648274EB047F0B10023EB60AB6077
S11319E04FF0FF32C5F83024C5F834342B61C5F804
S11319F02822C5F82C221D4E294630461E4B9847F6
S1131A0030461E4B9847B9F1000F16D1ADB914F00A
S1131A10060F0DD1002512E069681448184B984749
S1131A202846184B9847B9F1000FF0D0002503E081
S1131A304046154B984705460DB185F83844134B7D
S1131A40DB6C53B19847284613B0BDE8F08F0020F3
S1131A50FAE70020F8E70020F6E72846F4E7002537
S1131A60B9F1000FD2D00025E9E700BF70040020CF
S1131A70950F0000152A0000C91000003926000047
S1131A80812800002D14000071140000600400205F
S1131A9038B50446114BD3F8FC3C6BB154B10F4B31
S1131AA09B6C03B19847D4F8343443B90B4BDB6CCB
S1131AB003B19847002038BD094B9847EEE701234E
S1131AC004F50C72D4F830142046064DA8470028BB
S1131AD0ECD00023C4F83434E8E700BF60040020ED
S1131AE0A91500004512000038B50446174BD3F879
S1131AF0FC3C03B3F4B1154B9B6C03B198472046EF
S1131B00134B98472369CBB90023A360E360636058
S1131B104FF0FF32C4F83024C4F834342361204633
S1131B200C4B9847094C04F110000B4B9847E36C9D
S1131B3003B1984738BD094B9847DBE7E36804F5E0
S1131B40077221680648074DA847DDE760040020B6
S1131B50911A00002D14000039260000A915000078
S1131B60700400201D1000002DE9F84F82461D4628
S1131B7002FB01F63F4BD3F8FC3CFBB1BAF1000F7A
S1131B8068D0002D69D095F8383413F0010F67D070
S1131B90002E67D0AB68EA68934266D2F1188A4295
S1131BA034BFA2EB0309B1465F0AC3F30808B9F1D5
S1131BB0000F5DDD0026DFF8CCB02FE02E4B9847F8
S1131BC0DCE7D5F83034BB4211D0D5F83434002BDF
S1131BD03CD1012305F50C7239462846274CA04711
S1131BE000283FD0C5F830740023C5F83434C8F554
S1131BF00073A9EB06049C42A8BF1C4605F50C71B2
S1131C00224641440AEB0600D84701372644AB6814
S1131C101C44AC604FF00008B14523DDB8F1000F5F
S1131C20CFD1A9EB0602B2F5007FCADB1346002A26
S1131C30B8BF02F2FF135B120AEB060239462846CC
S1131C400E4CA04770B144020744DFE728460C4B12
S1131C509847BEE74FF0FF3604E04FF0FF3601E04F
S1131C604FF0FF363046BDE8F88F4FF0FF36F9E706
S1131C700026F7E760040020A915000051130000B6
S1131C80911A0000D13100002DE9F04F85B0824651
S1131C900C4616461D46604BD3F8FC3CABB1002DF8
S1131CA000F0B1805C4B9B6C03B1984795F83834D5
S1131CB013F0020F0CD1584BDB6C002B00F0A78003
S1131CC098474FF0FF3303938EE0544B9847E6E771
S1131CD006FB04F20392914613F0040F06D0EB685E
S1131CE0AB605F0AC3F308083AB979E0AB685F0AEE
S1131CF0C3F30808039B002B6BD00026DFF830B138
S1131D0001973CE02846464B984749E0C8F50074E3
S1131D10A9EB06039C4228BF1C46D5F83034019A2F
S1131D20934217D0D5F83434002B61D1B4F5007F39
S1131D300AD005F50C731A4602930123019928462B
S1131D40384FB847002857D0019BC5F830340023DA
S1131D50C5F8343405F50C7022460AEB06014044FC
S1131D60D8470123C5F834342644AB681C44AC601E
S1131D70019B013301934FF000084E4529D2B8F17D
S1131D80000FC3D1A9EB0604B4F5007FBED3D5F888
S1131D903034B3F1FF3F0AD0D5F83434002BB1D13D
S1131DA04FF0FF33C5F830340023C5F83434630AE8
S1131DB00AEB0602019F394628461B4CA047420203
S1131DC01644AB681344AB603B46034401930028BC
S1131DD0D1D1AB68EA68934202D9EB6001232B614D
S1131DE00D4BDB6C03B19847039805B0BDE8F08F49
S1131DF028460B4B984799E74FF40072002102984C
S1131E000A4B9847A0E74FF0FF330393ECE74FF0FA
S1131E10FF330393E8E700BF60040020A915000026
S1131E20911A000051130000451200000533000010
S1131E30D1310000002380F8053151B1034600F58B
S1131E40827000221A605A609A601A730D338342BA
S1131E50F8D170470B7803F01F035A1ED2B2132A2D
S1131E6030D810B490F805210AB980F80531013B47
S1131E704C7803EB430203EB820283188454CC783E
S1131E805C704C799C70CC79DC704C7A1C718C7BC6
S1131E905C710C7C9C718C7CDC710C7D1C728C7D67
S1131EA05C720C7E9C720C7FDC72897F19730D321C
S1131EB0104420211A78FF2A08BF19700133834285
S1131EC0F8D110BC704790F80531142B03D033B906
S1131ED0002303707047002380F80431704703EB3C
S1131EE0430203EB82030022C2547047C07A00F01D
S1131EF00F000F2814BF002001207047037853B14E
S1131F00E52B0AD0C37A082B09D013F0060F14BFAF
S1131F1001200020704701207047012070470120F4
S1131F207047CB7A0F2B0ED00A7872B1E52A0ED007
S1131F30082B0ED013F0060F0DD190F805010030D8
S1131F4018BF012070470020704700207047002010
S1131F5070470020704700207047C37A0F2B0BD0C6
S1131F6002785AB1E52A0BD0082B0BD013F0060FD8
S1131F700CBF0120002070470020704700207047EC
S1131F800020704700207047C07AC0F300107047EB
S1131F90C07AC0F34010704708B5064B9847034613
S1131FA030B10C30044B83FB0023C017C0EBA303F8
S1131FB0184608BD813400004FECC44E2DE9F047AB
S1131FC08EB006460C469046994601AD244F0FCF7D
S1131FD00FC50FCF0FC50FCF0FC53B682B60304621
S1131FE0204B9847054630461F4B9847824608EBDE
S1131FF0480008EB80072022002120461B4B98470D
S11320000AF1FF3AD04508F1010808BF48F040083A
S11320105FFA88F884F800800F23E37284F80D9047
S11320203B4601AA07F10D00FF274FF0000C0BE01F
S11320309D4211680FBF04F801C0675409194F701D
S113204001330432834207D09D42F1DD16F803E0E8
S1132050116804F801E0F3E70EB0BDE8F08700BFB3
S1132060A037000081340000991F000005330000F0
S1132070F0B4049F441E5D1E0A3014F8016F05F885
S1132080016F8442F9D1002058739873D87358743F
S113209020241C74D8749C749875D87558761C7652
S11320A04FB11020D87200201873100C98825A83F4
S11320B0D961F0BC7047DC72F5E70000F0B583B07D
S11320C006460C460846314B984723782E2B58D0A9
S11320D005464FF0203333607360C6F8073003F1D0
S11320E06043ADF804308DF80630002836DD611EFB
S11320F04FF0FF32002311F8010F2E2808BF1A46B3
S113210001339D42F7D1B2F1FF3F3CD0511C101D69
S1132110814209DA01A8151D8B42C4BF675C0770B0
S113212001310130A942F7D1002A17DD611E0025D3
S11321302C4604E0082D11D0013494420EDA11F833
S1132140013F202BF6D02E2BF4D0A3F16100C0B2B6
S1132150192898BF203B73550135EBE701A806F118
S113216008030B3610F8012BA2F16101C9B2192939
S113217098BF203A1A700133B342F3D1012003B05F
S1132180F0BD0020FBE71A46D0E700BF8134000011
S11321902B4B9A4201D900207047F0B58DB005460B
S11321A00E461446002309930A930B937E238DF85D
S11321B0243004AFDFF898E0BEE80F000FC7DEF864
S11321C000303B7001A81F4F00E008460146A7FB02
S11321D00423DB0803EB8302A4EB42020CAC22448D
S11321E012F8202C01F8012B1C46002BEDD10B70AA
S11321F001AB984221D30B460DF1250201AC13F833
S1132200011D02F8011BA342F9D1223000230370FF
S1132210326873682A606B603289B37A2A81AB7240
S113222009A8094B98470246C0F1080009A92844A7
S1132230064B984701200DB0F0BD0DF12500E5E7F0
S11322409F860100CDCCCCCC81340000D13100007C
S1132250D437000002B370B4461E013916F8014F9A
S113226011F8015FA4F14103DBB2192B9ABF04F109
S11322702000C0B22046A5F14103DBB2192B9ABF5E
S113228005F12003DBB22B46C01A03D114B10DB102
S1132290013AE3D170BC7047104670470146037899
S11322A053B102464FF0FF302E2B08BF501A12F8DC
S11322B0013F002BF8D170474FF0FF3070470246C2
S11322C0F8B101782F290CD043783A2B02D08378C7
S11322D05C2B19D103325C2113780020C3B1002098
S11322E006E00132F8E713465A1C01305B787BB1F3
S11322F09942F8D012F8013F4BB19942FAD11346F2
S1132300F2E74FF0FF3070474FF0FF307047013075
S11323100138704700283DD02DE9F8430546002BCD
S11323203BDD06782F2E16D040783A2802D0A878C4
S11323305C2836D103355C26994690460F462846DC
S11323401A4B9847002819DD2C46284400210D46D5
S113235009F1FF3204E00135EEE7013584420ED085
S113236014F8013B9E42F8D0AF42F7D18A42C3BF72
S113237008F801303D4601313D46EFE700210023D6
S113238008F8013098F80000B0FA80F040094042A3
S1132390BDE8F8834FF0FF3070474FF0FF30BDE8E1
S11323A0F8834FF0FF30BDE8F88300BF81340000AC
S11323B02DE9F04707460E4692469946164B984734
S11323C00446B0F1FF3F22D0089B4A4601463846F6
S11323D0124DA8478046E0B9ACB13846104CA0472E
S11323E005464846A0472C1A5445A8BF54462246E1
S11323F0394630460B4B98473444002304F8013CDB
S11324004046BDE8F08700233370A046F8E78046D5
S1132410F6E74FF0FF38F3E7BF2200001523000072
S113242081340000D13100002DE9F84F07460E46F3
S11324303A4DA84704463046A8470546B4F1FF3F45
S113244015D0B0F1FF3F4FD004F10108B84405F1B5
S11324500109B1444046DFF8CCA0D0478346484642
S1132460D047834508D000252846BDE8F88FB0F151
S1132470FF3F09D00025F7E75A4649464046284B16
S1132480984740B10025EFE73846264DA847044653
S11324903046A8470546621EB9183CB3BA5C202AE8
S11324A036D10846C4F101031944884206D0421EBD
S11324B010F8013C202B01D11046F6E7C41B691E1D
S11324C031446DB10B78202B0AD10B46C5F10105BF
S11324D029449D1B8B4203D013F8012D202AF8D0E8
S11324E0A5420CD00025BFE70025BDE76B1EF118FF
S11324F025B1F35C202BE8D02546B5E72C462246CF
S113250031463846064B9847B0FA80F56D09ABE77B
S1132510691E3144002DD5D1A6E700BF9D220000DD
S1132520552200008134000038B5D1B10C46D1F8F1
S11325300422C2B10346456B6DB1D1F800025A6959
S1132540811A1A6A4B1C93428CBF521A01222146EB
S1132550A847034618B10023C4F8043201231846DF
S113256038BD0023FBE70123F9E7000070B5D0F87C
S11325705042ECB10022164604E0D4F80C3283B188
S113258022461C46D4F800328B42F6D85D1CA94280
S1132590F3D254B3CB1A04EB4323C4F808322046D5
S11325A070BDFAB1C2F80C62D4F80C32002BE7D13A
S11325B00D460646D0F85032C4F80C32C0F85042EA
S11325C0D4F804321BB121460D4B9847A8B1C4F886
S11325D00052336B012221462846984738B1C4F88B
S11325E00842DCE7C0F85062DEE71446E0E74FF04B
S11325F0FF33C4F800320024D1E70024CFE700BF42
S11326002925000070B504464FF0FF33C0F8543458
S11326100025C0F8585400F515764FF40072294689
S11326203046044B9847C4F85C54C4F86054C4F86A
S1132630506270BD0533000070B5D0F850429CB1B3
S113264005460A4E02E0D4F80C4254B1D4F80432E0
S1132650002BF8D021462846B04703460028F2D183
S113266000E00123184670BD0123FBE72925000083
S113267070B506460C1E08BF022490F82D30E3B94D
S1132680250A7169294430461C4B984790B396F843
S11326902D20A2B9D0F80832A4EB05246400A4B21A
S11326A01A195278185D00EB0220A0F57F43F83B1D
S11326B0072B98BF4FF0FF3070BDE509E1E7D0F874
S11326C00822A4EBC514A400A4B21319D9789878ED
S11326D0000400EB0160125D10445B7800EB032002
S11326E020F0704000F170430833072B98BF4FF07F
S11326F0FF3070BD4FF0FF3070BD00BF6D2500008E
S113270090F82D3003B9704770B50E460546018B1D
S1132710C3691944144B9847044620B3D0F80832CF
S113272083F8EC61D0F80832320A83F8ED21D0F84E
S11327300832320C83F8EE21D0F80832320E83F8D6
S1132740EF210123C0F804326E626B6B23B10122C6
S11327500146D0F8000298474FF0FF33C4F8003226
S11327600023C4F8043270BD6D2500002DE9F0414A
S113277005460E4690461F4F95F82D30CBB9340AC6
S11327802B6A9C422BD2696921442846B84748B336
S113279095F82D207AB9D0F80822A6EB0424640019
S11327A0A4B213195978135D03EB0123EBB101367D
S11327B0E2E7F409E4E7D0F80812A6EBC414A40095
S11327C0A4B20A19D07893781B0403EB0063095D63
S11327D00B44527803EB022323F07043E6E7002016
S11327E0BDE8F0810020BDE8F081C8F80060012058
S11327F0BDE8F0816D250000F8B507460C46154686
S113280090F82D3023BB0E0A7969314438461B4BAE
S11328109847034678B397F82D20DAB1A4EBC61491
S1132820A400A4B2D0F808221555D0F808222244F6
S1132830290A5170D0F808222244290C9170D0F84A
S1132840082214442D0EE5700120C3F80402F8BDDB
S1132850CE09D9E7A4EB06246400A4B2D0F8082278
S11328601555D0F808623444C5F307256570012076
S1132870C3F80402F8BD0020F8BD00BF6D250000B8
S11328802DE9F8434B1E13F1030F12D881460D4670
S1132890094E4FF00008094F29464846B047044600
S11328A0424629464846B8472546013C14F1030FE1
S11328B0F2D90120BDE8F88371260000F927000051
S11328C0B1F1FF3F1AD0F8B505460C4617460D4E38
S11328D000E01C4621462846B047034680B1B0F1CB
S11328E0FF3FF6D13A4621462846074CA0474FF011
S11328F0FF3239462846A0470120F8BD0020704722
S11329000020F8BD71260000F92700002DE9F047EA
S113291082B004468A4690460E68436AB3F1FF3F8C
S113292003D04FF0FF31134B9847B8F1000F1FD07D
S11329300025DFF84890104F01AAA1682046C84737
S1132940034670B1019A31462046B8474FF0FF3232
S113295001992046B847019E3DB10135A845EBD108
S11329600123184602B0BDE8F087CAF80060F4E716
S11329700123F6E701270000F92700006D27000076
S1132980002B3CD02DE9F04182B01D4690460E4606
S11329900446436AB3F1FF3F03D04FF0FF31194BB4
S11329A0984720784002B5FBF0F707FB00F085421A
S11329B018BF013776B9D8F8003001933A4601A917
S11329C02046114B9847031C18BF0123184602B038
S11329D0BDE8F08101AAA16820460C4B9847034644
S11329E00028F3D0012FE9D14FF0FF32019920469E
S11329F0074B9847019BC8F800300123E6E7002302
S1132A0018467047012700000D2900006D270000BB
S1132A10F92700002DE9F04F97B0446B002C00F02B
S1132A20D3800A930792099108901046894B9847DE
S1132A30074618B9384617B0BDE8F08F10F1010BFE
S1132A4000F0C4800023059303931E46DFF8209210
S1132A50984606930B904EE0013601342035102C35
S1132A6047D0E7B22846C84738B1002EF4D10597BD
S1132A70049B0693CDF80CA0EEE72A78E52A28D02B
S1132A80A2BB26B90597049B0693CDF80CA001368A
S1132A90B345E2DCDDF818A00B9F0A9901F10B00A5
S1132AA0002505F0010211F8013B03EB550303EB8C
S1132AB0C21303F0FF058142F3D1D1464FF0000861
S1132AC0CDF80C80DFF8ACB106954646DDF81480ED
S1132AD05FE026B90597049B0693CDF80CA0013658
S1132AE0B345BADCDDF818A00B9FD6E70390064681
S1132AF0B3E708F10108CDF8108000234246099994
S1132B00089D2846544CA047044620B14035002473
S1132B104FF0010AA5E7DDF818A00B9F0DAA08984D
S1132B2081684E4B984708B9274683E70D9A09995F
S1132B3008984B4B98470028F6D04FF400720021B8
S1132B40089D05F14000474B98472B788BB1002531
S1132B50A846454E43462A460D99DDF8209048463E
S1132B60B0470028E0D00135EDB299F80030AB420F
S1132B70F0D8049B1946039A002A08BF8A46002A03
S1132B80059B08BF0023059387E7039B73B909F1ED
S1132B90010900234A460999089D28462E4CA0475E
S1132BA0B0B1403500240123049323E00898436B1B
S1132BB0012201464031D0F84002984710B1002369
S1132BC00393E4E7074635E7002733E75F4631E739
S1132BD007462FE763019BB2A7B1013F069B3A4624
S1132BE029460798D8470126049B039301342035CE
S1132BF0102CCAD0002EEDD1D145F7D1E3B29845BF
S1132C00F4D1E7E79846229B00930EAB209A2199D2
S1132C100A98164CA047089EB0440EAC0FCCC8F8D6
S1132C204000C8F84410C8F84820C8F84C300FCC0D
S1132C30C8F85000C8F85410C8F85820C8F85C30D8
S1132C40736B012231464031D6F84002984707465B
S1132C50F0E600BF991F0000110D00006D27000071
S1132C60C128000005330000A10D00007120000000
S1132C70ED1E0000BD1F00007AB1F8B504460D46F4
S1132C8016460644064F29462046B847013405F542
S1132C900075A642F7D10120F8BD0120704700BF9E
S1132CA0BD0400007AB1F8B504460D461646064444
S1132CB0064F29462046B847013405F50075A6425B
S1132CC0F7D10120F8BD0120704700BF590400006E
S1132CD02DE9F84300AF0546C268D31D23F007036E
S1132CE0ADEB030D0346012168460B4CA0470B4B8B
S1132CF09847EB686BB16E460024DFF82490DFF848
S1132D002480315D4846C0470134E4B2EB689C42FC
S1132D10F7D3BD46BDE8F883691B0000A90600008F
S1132D20E83700007107000030B59DB0274B984785
S1132D30274B9847274B9847274B19685868274BC8
S1132D409847274CA0472748274B9847A047274B2D
S1132D509847274B984727492748284B98470028E6
S1132D6028D127492748284B98470446002825D0CE
S1132D706A252A46254901A8254B984723462A4611
S1132D80012101A8234DA8476A2802D02248164BE6
S1132D9098472046214B984721491A481A4B98478F
S1132DA080B1204B9847204B9847204B98470020F0
S1132DB01DB030BD1E480C4B9847D2E71D480A4B46
S1132DC09847E6E71C48084B9847ECE73D0A0000A3
S1132DD081090000ED010000100000200907000037
S1132DE0A9060000EC37000071070000A5050000EB
S1132DF0A9150000A52C0000792C0000D9150000AD
S1132E001C380000203800004D16000084380000F3
S1132E10D1310000891C00002C380000E91A0000A0
S1132E2064380000D12C0000151600004108000091
S1132E3000380000483800006838000053B94AB927
S1132E40002908BF00281CBF4FF0FF314FF0FF30AE
S1132E5000F07AB9ADF1080C6DE904CE00F006F883
S1132E60DDF804E0DDE9022304B070472DE9F04702
S1132E708C460D460446089E002B51D18A421746C3
S1132E806DD9B2FA82FEBEF1000F0BD0CEF1200C48
S1132E9001FA0EF520FA0CFC02FA0EF74CEA050CC6
S1132EA000FA0EF44FEA174A250CBCFBFAF81FFA95
S1132EB087F90AFB18CC45EA0C4508FB09F3AB4239
S1132EC00AD9ED1908F1FF3280F02381AB4240F2B8
S1132ED02081A8F102083D44ED1AA4B2B5FBFAF032
S1132EE00AFB105544EA054400FB09F9A14509D938
S1132EF0E41900F1FF3380F00A81A14540F2078113
S1132F0002383C44A4EB090440EA08400021002EA6
S1132F1061D024FA0EF4002334607360BDE8F087B6
S1132F208B4207D9002E54D0002186E821000846A0
S1132F30BDE8F087B3FA83F1002940F08E80AB42FC
S1132F4002D3824200F2FA80841A65EB0305012061
S1132F50AC46002E3FD086E81010BDE8F08712B9C9
S1132F600127B7FBF2F7B7FA87FEBEF1000F34D1A1
S1132F70EB1B3A0C1FFA87FC0121B3FBF2F8250C7A
S1132F8002FB183345EA03450CFB08F3AB4207D9AF
S1132F90ED1908F1FF3002D2AB4200F2D180804635
S1132FA0ED1AA3B2B5FBF2F002FB105543EA054457
S1132FB00CFB00FCA44507D9E41900F1FF3302D24D
S1132FC0A44500F2B8801846A4EB0C0440EA08407B
S1132FD09DE731463046BDE8F087CEF1200405FA7E
S1132FE00EF307FA0EF720FA04F83A0C25FA04F463
S1132FF048EA0308B4FBF2F14FEA184502FB114416
S11330001FFA87FC45EA044501FB0CF3AB4200FAC6
S11330100EF409D9ED1901F1FF3080F08A80AB423A
S113302040F2878002393D44EB1A1FFA88F5B3FB5E
S1133030F2F002FB103345EA034500FB0CF3AB420C
S113304007D9ED1900F1FF386FD2AB426DD90238C0
S11330503D44EB1A40EA01418FE7C1F1200722FA0F
S113306007F88B4005FA01F448EA030320FA07FE47
S11330704FEA134CFD404EEA040EB5FBFCF94FEA4F
S11330801E440CFB19551FFA83F844EA054509FB55
S113309008F4AC4202FA01F200FA01FA08D9ED1878
S11330A009F1FF3043D2AC4241D9A9F102091D44D0
S11330B02D1B1FFA8EFEB5FBFCF00CFB10554EEADF
S11330C0054400FB08F8A04507D9E41800F1FF35D2
S11330D029D2A04527D902381C4440EA0940A4EB70
S11330E00804A0FB02894C45C6464D4615D312D0B0
S11330F056B1BAEB0E0364EB050404FA07F7CB40B0
S11331001F43CC40376074600021BDE8F087184647
S1133110F8E69046E0E6C245EAD2B8EB020E69EB67
S113312003050138E4E72846D7E7404691E781469E
S1133130BEE7014678E702383C4445E7084608E71D
S1133140A8F102083D442BE7704700BF70B50F4E4D
S11331500F4D761BB61018BF002405D0013455F866
S1133160043B9847A642F9D10A4E0B4D761B00F05A
S1133170D5FBB61018BF002406D0013455F8043B23
S11331809847A642F9D170BD70BD00BF2839000030
S1133190283900003039000028390000931E222B02
S11331A010D80A2A10B506D000230C46194400F0A2
S11331B027FA204610BD0028F6DA2D230B70404272
S11331C00123F2E700200870704700BFFFF7E6BF55
S11331D0844641EA000313F003036DD1403A41D31E
S11331E051F8043B40F8043B51F8043B40F8043BDD
S11331F051F8043B40F8043B51F8043B40F8043BCD
S113320051F8043B40F8043B51F8043B40F8043BBC
S113321051F8043B40F8043B51F8043B40F8043BAC
S113322051F8043B40F8043B51F8043B40F8043B9C
S113323051F8043B40F8043B51F8043B40F8043B8C
S113324051F8043B40F8043B51F8043B40F8043B7C
S113325051F8043B40F8043B51F8043B40F8043B6C
S1133260403ABDD2303211D351F8043B40F8043B0C
S113327051F8043B40F8043B51F8043B40F8043B4C
S113328051F8043B40F8043B103AEDD20C3205D31C
S113329051F8043B40F8043B043AF9D2043208D014
S11332A0D2071CBF11F8013B00F8013B01D30B8886
S11332B003806046704700BF082A13D38B078DD064
S11332C010F003038AD0C3F10403D21ADB071CBF36
S11332D011F8013B00F8013B80D331F8023B20F8A0
S11332E0023B7BE7043AD9D3013A11F8013B00F8D9
S11332F0013BF9D20B7803704B7843708B78837061
S11333006046704770B4860746D0541E002A41D0E8
S1133310CAB2034602E014F1FF343BD303F8012B95
S11333209D07F8D1032C2ED9CDB245EA05250F2CE3
S113333045EA054519D903F110022646103E0F2E21
S113334042F8105C42F80C5C42F8085C42F8045CF9
S113335002F11002F2D8A4F1100222F00F0204F0DC
S11333600F041032032C13440DD91E462246043A8E
S1133370032A46F8045BFAD8221F22F0030204321F
S1133380134404F003042CB1C9B21C4403F8011B18
S11333909C42FBD170BC704714460346C2E700BF91
S11333A080EA0102844612F0030F4FD111F0030F9B
S11333B032D14DF8044D11F0040F51F8043B0BD0F9
S11333C0A3F101329A4312F0803F04BF4CF8043B4E
S11333D051F8043B16D100BF51F8044BA3F101325C
S11333E09A4312F0803FA4F101320BD14CF8043B14
S11333F0A24312F0803F04BF51F8043B4CF8044B45
S1133400EAD023460CF8013B13F0FF0F4FEA3323B5
S1133410F8D15DF8044B704711F0010F06D011F894
S1133420012B0CF8012B002A08BF704711F0020F82
S1133430BFD031F8022B12F0FF0F16BF2CF8022B6D
S11334408CF8002012F47F4FB3D1704711F8012B90
S11334500CF8012B002AF9D1704700BF00000000CE
S11334600000000000000000000000000000000058
S11334700000000000000000000000000000000048
S113348090F800F06DE9024520F007016FF0000CA0
S113349010F0070491F820F040F049804FF0000448
S11334A06FF00700D1E9002391F840F000F1080023
S11334B082FA4CF2A4FA8CF283FA4CF3A2FA8CF35B
S11334C04BBBD1E9022382FA4CF200F10800A4FAC2
S11334D08CF283FA4CF3A2FA8CF3E3B9D1E9042316
S11334E082FA4CF200F10800A4FA8CF283FA4CF34D
S11334F0A2FA8CF37BB9D1E9062301F1200182FA07
S11335004CF200F10800A4FA8CF283FA4CF3A2FA0C
S11335108CF3002BC6D0002A04BF04301A4612BA1A
S1133520B2FA82F2FDE8024500EBD2007047D1E91D
S1133530002304F00305C4F100004FEAC50514F0AC
S1133540040F91F840F00CFA05F562EA05021CBF7D
S113355063EA050362464FF00004A9E7002A41D05C
S113356040EA010313F00303F0B425D1032A23D95D
S113357004680D68AC421FD1043A38D0A4F1013577
S113358025EA040414F0803F2ED1043004310FE006
S113359050F8043B0E68A3F10134B34224EA030457
S11335A001F1040126D1043A21D014F0803F1BD14B
S11335B0032A07460D46EBD805780C78AC4202F195
S11335C0FF331AD183B114B90EE06BB17AB110F89C
S11335D0012F11F8014FA24203F1FF33F5D0101B64
S11335E0F0BC7047104670470020F0BC704710468E
S11335F0F0BC704729463846DEE72A46EFE700BFAD
S1133600F0B5DFF878E0164604460F46BEE80F0032
S11336108BB06D460FC5BEE80F000FC59EE80300D2
S1133620B31E45F8040B222B297022D87D1E284690
S1133630002200E01A46B4FBF6F10AAB06FB114483
S113364023440C4613F8283C00F8013F531C00297E
S1133650F0D1F954BB184AB11978687805F8011FFC
S11336600134111B8C4203F80109F5DB38460BB019
S1133670F0BD002038700BB0F0BD00BFF43800007E
S1133680024B13B1024800F005B870470000000077
S1133690A1360000002301461A46184600F01EB861
S11336A038B50A4C0A4D641BA4100AD004F18043B7
S11336B0013B05EB8305013C55F804399847002C80
S11336C0F9D1BDE8384000F033B900BF40390000FB
S11336D03C390000704700BF704700BF2DE9F84334
S11336E02C4D0646286898460F469146FFF7F2FF90
S11336F0294B1C68D4F84831002B3ED05A681F2A45
S11337001CDC02F1010E76B103EB82010124C1F845
S11337108890D3F8880194402043022EC3F888018E
S1133720C1F8088123D00232C3F804E0286843F8C2
S11337302270FFF7D1FF0020BDE8F883174B0BB3CD
S11337404FF4C870AFF300800346D8B1D4F84821D1
S11337500260002141600A46C4F848014FF0010E9E
S1133760C0F88811C0F88C11002EDCD0CCE7D3F857
S11337708C110C43C3F88C41D5E704F5A673C4F847
S11337804831BBE72868FFF7A7FF4FF0FF30BDE8DB
S1133790F88300BF40040020F0380000000000005F
S11337A00100000003000000050000000700000005
S11337B0090000000E0000001000000012000000CC
S11337C01400000016000000180000001C00000097
S11337D01E00000030313233343536373839414237
S11337E04344454600000000256300005379737488
S11337F0656D20696E697420626567696E000000FA
S11338004552524F523A204D656469612061747487
S1133810616368206661696C65640A007700000072
S11338202F746573742E7478740000004552524FDF
S1133830523A2057726974652066696C6520666126
S1133840696C65640A0000004552524F523A2043A5
S113385072656174652066696C65206661696C6572
S1133860640A0000720000004552524F523A206F21
S113387070656E2066696C65206661696C65640AB2
S1133880000000004F6E63652075706F6E2061202C
S113389074696D6520746865726520776173206151
S11338A020736D616C6C2066696C6520746861744A
S11338B0206C69766564206F6E2061205344206318
S11338C06172642E20546869732066696C65207780
S11338D0617320636F6D706F736564206F6620740D
S11338E0776F2073656E74656E6365732E000000D8
S11338F018000020303132333435363738396162BC
S1133900636465666768696A6B6C6D6E6F7071720B
S1133910737475767778797A00000000F8B500BF83
S1133920F8BC08BC9E46704781360000A501000023
S1133930F8B500BFF8BC08BC9E4670478101000082
S10B39402CF5FF7F01000000DB
S1133948BFF35F8F0138FBD17047000038C1010015
S11339580000000400000008000000000403002028
S11339686C030020D40300200000000000000000C5
S1133978000000000000000000000000000000003B
S1133988000000000000000000000000000000002B
S1133998000000000000000000000000000000001B
S11339A8000000000000000000000000000000000B
S11339B800000000000000000000000000000000FB
S11339C800000000000000000000000000000000EB
S11339D800000000000000000000000000000000DB
S11339E800000000000000000000000000000000CB
S11339F800000000000000000000000000000000BB
S1133A0801000000000000000E33CDAB34126DE657
S1133A18ECDE05000B0000000000000000000000C0
S1133A28000000000000000000000000000000008A
S1133A38000000000000000000000000000000007A
S1133A48000000000000000000000000000000006A
S1133A58000000000000000000000000000000005A
S1073D88641100209E
S9030000FC
