:10000000F8440020F1010000ED010000ED010000C6
:10001000ED010000ED010000ED0100000000000016
:10002000000000000000000000000000ED010000E2
:10003000ED01000000000000ED010000ED010000F6
:10004000ED010000ED010000ED010000ED010000F8
:10005000ED010000ED010000ED010000ED010000E8
:10006000ED010000ED010000ED010000ED010000D8
:10007000ED010000ED010000ED010000ED010000C8
:10008000ED010000ED010000ED010000ED010000B8
:10009000ED010000ED010000ED010000ED010000A8
:1000A000ED010000ED010000ED010000ED01000098
:1000B000ED010000ED010000ED010000ED01000088
:1000C000ED010000ED010000ED010000ED01000078
:1000D000ED010000ED010000ED010000ED01000068
:1000E000ED010000ED010000ED010000ED01000058
:1000F000ED010000ED010000ED010000ED01000048
:10010000ED010000ED010000ED010000ED01000037
:10011000ED010000ED010000ED010000ED01000027
:10012000ED010000ED010000ED010000ED01000017
:10013000ED010000ED010000ED010000ED01000007
:10014000ED010000ED010000ED010000ED010000F7
:10015000ED010000ED010000ED010000ED010000E7
:10016000ED010000ED010000ED010000ED010000D7
:1001700000000000ED010000ED010000ED010000B5
:1001800010B5054C237833B9044B13B10448AFF3D1
:1001900000800123237010BD4C04002000000000EB
:1001A000141200000C4B43B10C480D4910B5AFF3CD
:1001B00000800C48036823B910BD0A48036833B9AE
:1001C0007047094B002BF7D0BDE810401847064B8D
:1001D000002BF5D0184700BF0000000014120000EB
:1001E000500400201412000000000000FEE7000090
:1001F00008B5174B174A9A4210D0174B144A9A4227
:100200000CD2013B9B1A23F003030433134411491E
:1002100051F8040B42F8040B9A42F9D10F4B104AE3
:100220009A420AD2013B9B1A23F00303043313447E
:10023000002142F8041B9342FBD10A4A0A4B23F0E7
:100240007F039360094B9847094B9847FEE700BF2F
:1002500000000020141200004C040020F8040020CC
:100260004C04002000ED00E00000000075100000CC
:100270005D040000014A024B1A60704738C101005A
:100280000C00002010B4114B18784EF2010343EA21
:10029000400343EA02430E480824C462C3606AB1C3
:1002A000501EC0B201300844094AD36913F0010F4F
:1002B000FBD0536901F8013B8142F6D1044AD3696E
:1002C00013F0080FFBD010BC704700BF10000020D7
:1002D00000C0074010B582B0022201A90A4B18786D
:1002E0000A4B98479DF804009DF805301B0943EA26
:1002F0000010074B98470022064B074CA047074BBE
:10030000984702B010BD00BF100000208502000019
:10031000D50700000000B03FA1080000C50C000098
:1003200010B4134B1C78640044F4604444EA024463
:100330001048C36913F0040FFBD00E4B0820D8629D
:10034000DC606AB1501EC0B2013008441A46D3695D
:1003500013F0020FFBD011F8013B93618142F6D1FB
:10036000044AD36913F0080FFBD010BC704700BFDC
:100370001000002000C0074070B582B001268DF843
:1003800004608DF80500074D022201A92878064C6B
:10039000A04702A9002301F8053D32462878A0476E
:1003A00002B070BD1000002021030000194A5368FC
:1003B00092681343184AC2F80832C2F81832C2F8D9
:1003C0002432C2F83832154B154A9A659A6A42F4BB
:1003D00080029A62A3F5C8230220186080221A6066
:1003E000104ADA6201221A60596860F31E7159607E
:1003F000596862F307015960596862F30F21596027
:10040000596862F317415960596862F31B6159607A
:10041000704700BF1000002000100E4000000E408A
:10042000280000AA087F0200094B0A4A9A619A6CC8
:1004300042F001029A641A46936C13F0010FFBD04C
:10044000054B4FF02A429A6505221A60704700BF9B
:1004500000080E40480000AA00000E402DE9F041BF
:1004600082B01E4B98471E4B98471E4B98471E4B19
:10047000984760201D4B98470123ADF806301C4B70
:1004800098470090BDF806201A4B186892B2A0FB5E
:10049000020143F2B062002343F2AF640025001969
:1004A0006941154CA047154B9847114F114E43F227
:1004B000AF640025B8470090BDF8060080B23368ED
:1004C000A3FB000143F2B062002300196941DFF889
:1004D0002880C047094B9847009BEBE77502000056
:1004E0000105000029040000AD03000079030000AD
:1004F000D50200007C040020650D000001000020F2
:10050000074B93F84C2042F0010283F84C20054A37
:100510005A60054B1A600020044B1870704700BFEA
:100520008404002038C101007C04002080040020E5
:1005300081F0004102E000BF83F0004330B54FEA94
:1005400041044FEA430594EA050F08BF90EA020F01
:100550001FBF54EA000C55EA020C7FEA645C7FEA94
:10056000655C00F0E2804FEA5454D4EB5555B8BFB7
:100570006D420CDD2C4480EA020281EA030382EA28
:10058000000083EA010180EA020281EA0303362DBA
:1005900088BF30BD11F0004F4FEA01314FF4801C8D
:1005A0004CEA113102D0404261EB410113F0004F9F
:1005B0004FEA03334CEA133302D0524263EB430356
:1005C00094EA050F00F0A780A4F10104D5F1200EF4
:1005D0000DDB02FA0EFC22FA05F2801841F100014F
:1005E00003FA0EF2801843FA05F359410EE0A5F123
:1005F00020050EF1200E012A03FA0EFC28BF4CF054
:10060000020C43FA05F3C01851EBE37101F0004509
:1006100007D54FF0000EDCF1000C7EEB00006EEB16
:100620000101B1F5801F1BD3B1F5001F0CD34908A0
:100630005FEA30004FEA3C0C04F101044FEA4452F7
:1006400012F5800F80F09A80BCF1004F08BF5FEA7E
:10065000500C50F1000041EB045141EA050130BD5E
:100660005FEA4C0C404141EB010111F4801FA4F101
:100670000104E9D191F0000F04BF01460020B1FA56
:1006800081F308BF2033A3F10B03B3F120020CDA8E
:100690000C3208DD02F1140CC2F10C0201FA0CF06C
:1006A00021FA02F10CE002F11402D8BFC2F1200CD1
:1006B00001FA02F120FA0CFCDCBF41EA0C01904087
:1006C000E41AA2BF01EB0451294330BD6FEA0404D0
:1006D0001F3C1CDA0C340EDC04F11404C4F12002BB
:1006E00020FA04F001FA02F340EA030021FA04F3CD
:1006F00045EA030130BDC4F10C04C4F1200220FA24
:1007000002F001FA04F340EA0300294630BD21FA61
:1007100004F0294630BD94F0000F83F4801306BF27
:1007200081F480110134013D4EE77FEA645C18BF1B
:100730007FEA655C29D094EA050F08BF90EA020FB2
:1007400005D054EA000C04BF1946104630BD91EAAA
:10075000030F1EBF0021002030BD5FEA545C05D1AD
:100760004000494128BF41F0004130BD14F58004EC
:100770003CBF01F5801130BD01F0004545F0FE4160
:1007800041F470014FF0000030BD7FEA645C1ABF95
:10079000194610467FEA655C1CBF0B46024650EACC
:1007A000013406BF52EA033591EA030F41F40021F8
:1007B00030BD00BF90F0000F04BF0021704730B57E
:1007C0004FF4806404F132044FF000054FF0000153
:1007D00050E700BF90F0000F04BF0021704730B514
:1007E0004FF4806404F1320410F0004548BF4042E9
:1007F0004FF000013EE700BF42004FEAE2014FEA3E
:1008000031014FEA02701FBF12F07F4393F07F4F18
:1008100081F06051704792F0000F14BF93F07F4F4A
:10082000704730B54FF4607401F0004521F000418D
:1008300020E700BF50EA010208BF704730B54FF013
:1008400000050AE050EA010208BF704730B511F018
:10085000004502D5404261EB41014FF4806404F150
:1008600032045FEA915C3FF4DCAE4FF003025FEAD2
:10087000DC0C18BF03325FEADC0C18BF033202EB5A
:10088000DC02C2F1200300FA03FC20FA02F001FAB4
:1008900003FE40EA0E0021FA02F11444C1E600BF53
:1008A00070B54FF0FF0C4CF4E06C1CEA11541DBF06
:1008B0001CEA135594EA0C0F95EA0C0F00F0DEF8D1
:1008C0002C4481EA030621EA4C5123EA4C5350EAB6
:1008D000013518BF52EA033541F4801143F4801307
:1008E00038D0A0FB02CE4FF00005E1FB02E506F098
:1008F0000042E0FB03E54FF00006E1FB03569CF0ED
:10090000000F18BF4EF0010EA4F1FF04B6F5007FF2
:1009100064F5407404D25FEA4E0E6D4146EB060664
:1009200042EAC62141EA55514FEAC52040EA5E50ED
:100930004FEACE2EB4F1FD0C88BFBCF5E06F1ED897
:10094000BEF1004F08BF5FEA500E50F1000041EBCE
:10095000045170BD06F0004646EA010140EA02007B
:1009600081EA0301B4EB5C04C2BFD4EB0C0541EA9D
:10097000045170BD41F480114FF0000E013C00F3B2
:10098000AB8014F1360FDEBF002001F0004170BDD6
:10099000C4F10004203C35DA0C341BDC04F11404EF
:1009A000C4F1200500FA05F320FA04F001FA05F27B
:1009B00040EA020001F0004221F0004110EBD37048
:1009C00021FA04F642EB06015EEA430E08BF20EA74
:1009D000D37070BDC4F10C04C4F1200500FA04F317
:1009E00020FA05F001FA04F240EA020001F00041A9
:1009F00010EBD37041F100015EEA430E08BF20EA1C
:100A0000D37070BDC4F1200500FA05F24EEA020E63
:100A100020FA04F301FA05F243EA020321FA04F092
:100A200001F0004121FA04F220EA020000EBD37049
:100A30005EEA430E08BF20EAD37070BD94F0000F49
:100A40000FD101F00046400041EB010111F4801F7D
:100A500008BF013CF7D041EA060195F0000F18BF2E
:100A6000704703F00046520043EB030313F4801F6A
:100A700008BF013DF7D043EA0603704794EA0C0F24
:100A80000CEA135518BF95EA0C0F0CD050EA41063A
:100A900018BF52EA4306D1D181EA030101F00041B7
:100AA0004FF0000070BD50EA410606BF10461946DF
:100AB00052EA430619D094EA0C0F02D150EA0136EB
:100AC00013D195EA0C0F05D152EA03361CBF10462C
:100AD00019460AD181EA030101F0004141F0FE41CB
:100AE00041F470014FF0000070BD41F0FE4141F44F
:100AF000780170BD70B54FF0FF0C4CF4E06C1CEA4F
:100B000011541DBF1CEA135594EA0C0F95EA0C0F03
:100B100000F0A7F8A4EB050481EA030E52EA0335BE
:100B20004FEA013100F088804FEA03334FF08055DF
:100B300045EA131343EA12634FEA022245EA11150C
:100B400045EA10654FEA00260EF000419D4208BFBD
:100B5000964244F1FD0404F5407402D25B084FEA6A
:100B60003202B61A65EB03055B084FEA32024FF416
:100B700080104FF4002CB6EB020E75EB030E22BF73
:100B8000B61A754640EA0C005B084FEA3202B6EB33
:100B9000020E75EB030E22BFB61A754640EA5C00E2
:100BA0005B084FEA3202B6EB020E75EB030E22BF72
:100BB000B61A754640EA9C005B084FEA3202B6EB73
:100BC000020E75EB030E22BFB61A754640EADC0032
:100BD00055EA060E18D04FEA051545EA16754FEA94
:100BE00006164FEAC30343EA52734FEAC2025FEAB2
:100BF0001C1CC0D111F4801F0BD141EA00014FF041
:100C000000004FF0004CB6E711F4801F04BF014311
:100C10000020B4F1FD0C88BFBCF5E06F3FF6AFAE2D
:100C2000B5EB030C04BFB6EB020C5FEA500C50F1BD
:100C3000000041EB045170BD0EF0004E4EEA113140
:100C400014EB5C04C2BFD4EB0C0541EA045170BD47
:100C500041F480114FF0000E013C90E645EA060E8B
:100C60008DE60CEA135594EA0C0F08BF95EA0C0FB9
:100C70003FF43BAF94EA0C0F0AD150EA01347FF401
:100C800034AF95EA0C0F7FF425AF104619462CE7D8
:100C900095EA0C0F06D152EA03353FF4FDAE10463B
:100CA000194622E750EA410618BF52EA43067FF48C
:100CB000C5AE50EA41047FF40DAF52EA43057FF41C
:100CC000EBAE12E74FEA4102B2F1E04324BFB3F5C5
:100CD000001CDCF1FE5C0DD901F0004C4FEAC002B3
:100CE0004CEA5070B2F1004F40EB830008BF20F097
:100CF0000100704711F0804F21D113F13872BCBF51
:100D000001F00040704741F480114FEA5252C2F1A5
:100D10001802C2F1200C10FA0CF320FA02F018BFEE
:100D200040F001004FEAC1234FEAD32303FA0CFC41
:100D300040EA0C0023FA02F34FEA4303CCE77FEAD0
:100D4000625307D150EA01331EBF4FF0FE4040F41A
:100D50004000704701F0004040F0FE4040F40000C9
:100D6000704700BF53B94AB9002908BF00281CBF0B
:100D70004FF0FF314FF0FF3000F07AB9ADF1080CC1
:100D80006DE904CE00F006F8DDF804E0DDE90223A9
:100D900004B070472DE9F0478C460D460446089E86
:100DA000002B51D18A4217466DD9B2FA82FEBEF1AC
:100DB000000F0BD0CEF1200C01FA0EF520FA0CFC3E
:100DC00002FA0EF74CEA050C00FA0EF44FEA174A45
:100DD000250CBCFBFAF81FFA87F90AFB18CC45EA88
:100DE0000C4508FB09F3AB420AD9ED1908F1FF32B3
:100DF00080F02381AB4240F22081A8F102083D44FB
:100E0000ED1AA4B2B5FBFAF00AFB105544EA05440A
:100E100000FB09F9A14509D9E41900F1FF3380F07D
:100E20000A81A14540F2078102383C44A4EB090441
:100E300040EA08400021002E61D024FA0EF400237D
:100E400034607360BDE8F0878B4207D9002E54D020
:100E5000002186E821000846BDE8F087B3FA83F157
:100E6000002940F08E80AB4202D3824200F2FA8029
:100E7000841A65EB03050120AC46002E3FD086E8BE
:100E80001010BDE8F08712B90127B7FBF2F7B7FAE7
:100E900087FEBEF1000F34D1EB1B3A0C1FFA87FC22
:100EA0000121B3FBF2F8250C02FB183345EA034598
:100EB0000CFB08F3AB4207D9ED1908F1FF3002D261
:100EC000AB4200F2D1808046ED1AA3B2B5FBF2F03E
:100ED00002FB105543EA05440CFB00FCA44507D96E
:100EE000E41900F1FF3302D2A44500F2B88018469D
:100EF000A4EB0C0440EA08409DE731463046BDE8CB
:100F0000F087CEF1200405FA0EF307FA0EF720FA67
:100F100004F83A0C25FA04F448EA0308B4FBF2F1A9
:100F20004FEA184502FB11441FFA87FC45EA0445C5
:100F300001FB0CF3AB4200FA0EF409D9ED1901F1F3
:100F4000FF3080F08A80AB4240F2878002393D4416
:100F5000EB1A1FFA88F5B3FBF2F002FB103345EAF7
:100F6000034500FB0CF3AB4207D9ED1900F1FF3844
:100F70006FD2AB426DD902383D44EB1A40EA0141D1
:100F80008FE7C1F1200722FA07F88B4005FA01F438
:100F900048EA030320FA07FE4FEA134CFD404EEAED
:100FA000040EB5FBFCF94FEA1E440CFB19551FFA61
:100FB00083F844EA054509FB08F4AC4202FA01F261
:100FC00000FA01FA08D9ED1809F1FF3043D2AC421A
:100FD00041D9A9F102091D442D1B1FFA8EFEB5FB54
:100FE000FCF00CFB10554EEA054400FB08F8A04548
:100FF00007D9E41800F1FF3529D2A04527D90238D6
:101000001C4440EA0940A4EB0804A0FB02894C45BB
:10101000C6464D4615D312D056B1BAEB0E0364EB5B
:10102000050404FA07F7CB401F43CC4037607460D7
:101030000021BDE8F0871846F8E69046E0E6C24594
:10104000EAD2B8EB020E69EB03050138E4E7284663
:10105000D7E7404691E78146BEE7014678E7023888
:101060003C4445E7084608E7A8F102083D442BE761
:10107000704700BF70B50F4E0F4D761BB61018BFEE
:10108000002405D0013455F8043B9847A642F9D115
:101090000A4E0B4D761B00F0A7F8B61018BF0024BF
:1010A00006D0013455F8043B9847A642F9D170BDEB
:1010B00070BD00BFF4110000F4110000FC1100002D
:1010C000F4110000024B13B1024800F005B870475C
:1010D00000000000E5100000002301461A461846F3
:1010E00000F01EB838B50A4C0A4D641BA4100AD093
:1010F00004F18043013B05EB8305013C55F80439BD
:101100009847002CF9D1BDE8384000F077B800BF0F
:101110000C12000008120000704700BF704700BFAB
:101120002DE9F8432C4D0646286898460F4691460F
:10113000FFF7F2FF294B1C68D4F84831002B3ED052
:101140005A681F2A1CDC02F1010E76B103EB820102
:101150000124C1F88890D3F8880194402043022EDE
:10116000C3F88801C1F8088123D00232C3F804E033
:10117000286843F82270FFF7D1FF0020BDE8F8830C
:10118000174B0BB34FF4C870AFF300800346D8B1D0
:10119000D4F848210260002141600A46C4F84801A1
:1011A0004FF0010EC0F88811C0F88C11002EDCD071
:1011B000CCE7D3F88C110C43C3F88C41D5E704F588
:1011C000A673C4F84831BBE72868FFF7A7FF4FF0C4
:1011D000FF30BDE8F88300BF48040020E4110000A0
:1011E0000000000020000020F8B500BFF8BC08BCDB
:1011F0009E467047C5100000A5010000F8B500BF6D
:0C120000F8BC08BC9E467047810100004D
:08120C0088FBFF7F01000000D8
:10121400BFF35F8F0138FBD17047000038C1010074
:101224004F000000008000000040000000000000AB
:10123400000000000C03002074030020DC030020E5
:10124400000000000000000000000000000000009A
:10125400000000000000000000000000000000008A
:10126400000000000000000000000000000000007A
:10127400000000000000000000000000000000006A
:10128400000000000000000000000000000000005A
:10129400000000000000000000000000000000004A
:1012A400000000000000000000000000000000003A
:1012B400000000000000000000000000000000002A
:1012C400000000000000000000000000000000001A
:1012D4000000000000000000010000000000000009
:1012E4000E33CDAB34126DE6ECDE05000B000000CE
:1012F40000000000000000000000000000000000EA
:1013040000000000000000000000000000000000D9
:1013140000000000000000000000000000000000C9
:1013240000000000000000000000000000000000B9
:0C1654000000000000000000D404002092
:00000001FF
