:1000000088440020190400001504000015040000B5
:100010001504000015040000150400000000000095
:1000200000000000000000000000000015040000B7
:100030001504000000000000150400001504000075
:10004000150400001504000015040000150400004C
:10005000150400001504000015040000150400003C
:10006000150400001504000015040000150400002C
:10007000150400001504000015040000150400001C
:10008000150400001504000015040000150400000C
:1000900015040000150400001504000015040000FC
:1000A00015040000150400001504000015040000EC
:1000B00015040000150400001504000015040000DC
:1000C00015040000150400001504000015040000CC
:1000D00015040000150400001504000015040000BC
:1000E00015040000150400001504000015040000AC
:1000F000150400001504000015040000150400009C
:10010000150400001504000015040000150400008B
:10011000150400001504000015040000150400007B
:10012000150400001504000015040000150400006B
:10013000150400001504000015040000150400005B
:10014000150400001504000015040000150400004B
:10015000150400001504000015040000150400003B
:10016000150400001504000015040000150400002B
:100170000000000015040000150400001504000034
:1001800010B5054C237833B9044B13B10448AFF3D1
:1001900000800123237010BD4404002000000000F3
:1001A0001C0A00000C4B43B10C480D4910B5AFF3CD
:1001B00000800C48036823B910BD0A48036833B9AE
:1001C0007047094B002BF7D0BDE810401847064B8D
:1001D000002BF5D0184700BF000000001C0A0000EB
:1001E000480400201C0A000000000000054A536972
:1001F00013F0020FFBD0034BDA6960F30802DA61F7
:10020000704700BF0080024051B170B504460D46F2
:100210000544044E14F8010BB047A542FAD170BD55
:10022000704700BFED01000010B50A20024CA04746
:100230000D20A04710BD00BFED01000038B50446F9
:100240000E4B5A6842F400225A605B68C3F3C04305
:10025000002B0CBF10250825094B984704FB05F41B
:10026000B0FBF4F4A4B22CB1044B1A6A64F30F028D
:100270001A6238BD034B9847F6E700BF0080024082
:1002800025030000ED02000008B50143134BC3F83D
:100290000814C3F81814C3F82814C3F83814A3F5C5
:1002A00080530F4A9A659A6A42F400729A624FF438
:1002B00016500C4B98470C4B5A6842F0C0025A60DB
:1002C0001A6842F008021A601A6842F040021A6086
:1002D0001A46536913F0020FFBD008BD00100E4000
:1002E000280000AA3D0200000080024080B50B4BB0
:1002F0008022C3F80424C3F844241D46164617463A
:10030000C5F858744FF47A700021054CA047C5F821
:1003100054644FF47A700021A047F1E700100E40BA
:10032000A903000008B5174B1B6803F00703062B51
:100330001FD8DFE803F020061E1E04082200124822
:1003400008BD124B9847124B9B6C13F0010F0ED057
:100350000F4B9B6CC3F30123012B06D07BB10D4ADD
:100360000D48022B18BF104608BD0C4808BD074BAE
:100370009847064B98470A4808BD064808BD0948F3
:1003800008BD00BF00000E4000B4C404ED02000030
:1003900000080E4040420F00001BB70000127A0018
:1003A00038C1010000093D0070B504460E46094BF6
:1003B0009847A0FB044500FB065543F2B0620023BA
:1003C00043F2AF60002100196941034CA047034B81
:1003D000984770BD2503000045050000010000207E
:1003E000094B0A4A9A619A6C42F001029A641A46D1
:1003F000936C13F0010FFBD0054B4FF02A429A6526
:1004000005221A60704700BF00080E40480000AA8D
:1004100000000E40FEE7000008B5174B174A9A424D
:1004200010D0174B144A9A420CD2013B9B1A23F06E
:10043000030304331344114951F8040B42F8040B2D
:100440009A42F9D10F4B104A9A420AD2013B9B1AA9
:1004500023F0030304331344002142F8041B9342A6
:10046000FBD10A4A0A4B23F07F039360094B98475C
:10047000094B9847FEE700BF000000201C0A00005F
:1004800044040020840400204404002000ED00E027
:10049000000000005508000019050000014A024B49
:1004A0001A60704738C101000C0000202DE9F041AE
:1004B0008AB06C46124D0FCD0FC40FCD0FC495E816
:1004C000030044F8040B2180262168460D4B984711
:1004D0000024DFF840800C4F0C4EC047651CA7FB82
:1004E0000430C00800EB8000A4EB40003030C0B204
:1004F000B0474FF4FA700021054B98472C46ECE7C3
:10050000C409000009020000CDCCCCCCED010000F4
:10051000A90300002902000008B5054B9847054BC8
:100520009847054B19685868044B9847044B9847FF
:100530009D040000E103000010000020890200007B
:10054000AD04000053B94AB9002908BF00281CBFF8
:100550004FF0FF314FF0FF3000F07AB9ADF1080CE9
:100560006DE904CE00F006F8DDF804E0DDE90223D1
:1005700004B070472DE9F0478C460D460446089EAE
:10058000002B51D18A4217466DD9B2FA82FEBEF1D4
:10059000000F0BD0CEF1200C01FA0EF520FA0CFC66
:1005A00002FA0EF74CEA050C00FA0EF44FEA174A6D
:1005B000250CBCFBFAF81FFA87F90AFB18CC45EAB0
:1005C0000C4508FB09F3AB420AD9ED1908F1FF32DB
:1005D00080F02381AB4240F22081A8F102083D4423
:1005E000ED1AA4B2B5FBFAF00AFB105544EA054433
:1005F00000FB09F9A14509D9E41900F1FF3380F0A6
:100600000A81A14540F2078102383C44A4EB090469
:1006100040EA08400021002E61D024FA0EF40023A5
:1006200034607360BDE8F0878B4207D9002E54D048
:10063000002186E821000846BDE8F087B3FA83F17F
:10064000002940F08E80AB4202D3824200F2FA8051
:10065000841A65EB03050120AC46002E3FD086E8E6
:100660001010BDE8F08712B90127B7FBF2F7B7FA0F
:1006700087FEBEF1000F34D1EB1B3A0C1FFA87FC4A
:100680000121B3FBF2F8250C02FB183345EA0345C0
:100690000CFB08F3AB4207D9ED1908F1FF3002D289
:1006A000AB4200F2D1808046ED1AA3B2B5FBF2F066
:1006B00002FB105543EA05440CFB00FCA44507D996
:1006C000E41900F1FF3302D2A44500F2B8801846C5
:1006D000A4EB0C0440EA08409DE731463046BDE8F3
:1006E000F087CEF1200405FA0EF307FA0EF720FA90
:1006F00004F83A0C25FA04F448EA0308B4FBF2F1D2
:100700004FEA184502FB11441FFA87FC45EA0445ED
:1007100001FB0CF3AB4200FA0EF409D9ED1901F11B
:10072000FF3080F08A80AB4240F2878002393D443E
:10073000EB1A1FFA88F5B3FBF2F002FB103345EA1F
:10074000034500FB0CF3AB4207D9ED1900F1FF386C
:100750006FD2AB426DD902383D44EB1A40EA0141F9
:100760008FE7C1F1200722FA07F88B4005FA01F460
:1007700048EA030320FA07FE4FEA134CFD404EEA15
:10078000040EB5FBFCF94FEA1E440CFB19551FFA89
:1007900083F844EA054509FB08F4AC4202FA01F289
:1007A00000FA01FA08D9ED1809F1FF3043D2AC4242
:1007B00041D9A9F102091D442D1B1FFA8EFEB5FB7C
:1007C000FCF00CFB10554EEA054400FB08F8A04570
:1007D00007D9E41800F1FF3529D2A04527D90238FE
:1007E0001C4440EA0940A4EB0804A0FB02894C45E4
:1007F000C6464D4615D312D056B1BAEB0E0364EB84
:10080000050404FA07F7CB401F43CC4037607460FF
:100810000021BDE8F0871846F8E69046E0E6C245BC
:10082000EAD2B8EB020E69EB03050138E4E728468B
:10083000D7E7404691E78146BEE7014678E70238B0
:100840003C4445E7084608E7A8F102083D442BE789
:10085000704700BF70B50F4E0F4D761BB61018BF16
:10086000002405D0013455F8043B9847A642F9D13D
:100870000A4E0B4D761B00F0BBF8B61018BF0024D3
:1008800006D0013455F8043B9847A642F9D170BD13
:1008900070BD00BFFC090000FC090000040A000054
:1008A000FC090000024B13B1024800F005B8704784
:1008B00000000000C5080000002301461A46184643
:1008C00000F01EB838B50A4C0A4D641BA4100AD0BB
:1008D00004F18043013B05EB8305013C55F80439E5
:1008E0009847002CF9D1BDE8384000F08BB800BF24
:1008F000140A0000100A0000704700BF704700BFD4
:100900002DE9F8432C4D0646286898460F46914637
:10091000FFF7F2FF294B1C68D4F84831002B3ED07A
:100920005A681F2A1CDC02F1010E76B103EB82012A
:100930000124C1F88890D3F8880194402043022E06
:10094000C3F88801C1F8088123D00232C3F804E05B
:10095000286843F82270FFF7D1FF0020BDE8F88334
:10096000174B0BB34FF4C870AFF300800346D8B1F8
:10097000D4F848210260002141600A46C4F84801C9
:100980004FF0010EC0F88811C0F88C11002EDCD099
:10099000CCE7D3F88C110C43C3F88C41D5E704F5B0
:1009A000A673C4F84831BBE72868FFF7A7FF4FF0EC
:1009B000FF30BDE8F88300BF40040020EC090000D0
:1009C0000000000054657374696E672E20436865EB
:1009D000636B203120322E204973207468697320A4
:1009E0007468696E67206F6E3F0000001800002079
:1009F000F8B500BFF8BC08BC9E467047A5080000CB
:100A0000A5010000F8B500BFF8BC08BC9E467047C1
:040A10008101000060
:080A140060FBFF7F0100000000
:100A1C00BFF35F8F0138FBD17047000038C1010074
:100A2C000000000400000008000000000403002087
:100A3C006C030020D4030020000000000000000024
:100A4C00000000000000000000000000000000009A
:100A5C00000000000000000000000000000000008A
:100A6C00000000000000000000000000000000007A
:100A7C00000000000000000000000000000000006A
:100A8C00000000000000000000000000000000005A
:100A9C00000000000000000000000000000000004A
:100AAC00000000000000000000000000000000003A
:100ABC00000000000000000000000000000000002A
:100ACC00000000000000000000000000000000001A
:100ADC0001000000000000000E33CDAB34126DE6B7
:100AEC00ECDE05000B000000000000000000000020
:100AFC0000000000000000000000000000000000EA
:100B0C0000000000000000000000000000000000D9
:100B1C0000000000000000000000000000000000C9
:100B2C0000000000000000000000000000000000B9
:040E5C00600400200E
:00000001FF
