S02600004932432074656D702073656E736F72207573696E6720416C6578206C69622E7372656369
S113000020460020F1010000ED010000ED01000098
S1130010ED010000ED010000ED0100000000000012
S1130020000000000000000000000000ED010000DE
S1130030ED01000000000000ED010000ED010000F2
S1130040ED010000ED010000ED010000ED010000F4
S1130050ED010000ED010000ED010000ED010000E4
S1130060ED010000ED010000ED010000ED010000D4
S1130070ED010000ED010000ED010000ED010000C4
S1130080ED010000ED010000ED010000ED010000B4
S1130090ED010000ED010000ED010000ED010000A4
S11300A0ED010000ED010000ED010000ED01000094
S11300B0ED010000ED010000ED010000ED01000084
S11300C0ED010000ED010000ED010000ED01000074
S11300D0ED010000ED010000ED010000ED01000064
S11300E0ED010000ED010000ED010000ED01000054
S11300F0ED010000ED010000ED010000ED01000044
S1130100ED010000ED010000ED010000ED01000033
S1130110ED010000ED010000ED010000ED01000023
S1130120ED010000ED010000ED010000ED01000013
S1130130ED010000ED010000ED010000ED01000003
S1130140ED010000ED010000ED010000ED010000F3
S1130150ED010000ED010000ED010000ED010000E3
S1130160ED010000ED010000ED010000ED010000D3
S113017000000000ED010000ED010000ED010000B1
S113018010B5054C237833B9044B13B10448AFF3CD
S113019000800123237010BD7404002000000000BF
S11301A0BC0D00000C4B43B10C480D4910B5AFF326
S11301B000800C48036823B910BD0A48036833B9AA
S11301C07047094B002BF7D0BDE810401847064B89
S11301D0002BF5D0184700BF00000000BC0D000044
S11301E078040020BC0D000000000000FEE70000C1
S11301F008B5174B174A9A4210D0174B144A9A4223
S11302000CD2013B9B1A23F003030433134411491A
S113021051F8040B42F8040B9A42F9D10F4B104ADF
S11302209A420AD2013B9B1A23F00303043313447A
S1130230002142F8041B9342FBD10A4A0A4B23F0E3
S11302407F039360094B9847094B9847FEE700BF2B
S113025000000020BC0D00007404002020060020D3
S11302607404002000ED00E0000000001D0C0000FC
S1130270E9040000014A024B1A60704738C10100CA
S11302800C000020437913F0010F037902684FEA50
S1130290432303F1804303F5612314BF5A619A6138
S11302A0437913F0020F037902684FEA432303F101
S11302B0804303F5612314BF5A629A62437913F0B1
S11302C0040F037902684FEA432303F1804303F5E3
S11302D0612314BF5A639A63037902685B0203F1D2
S11302E0804303F561239A60704700000279016836
S11302F0094B03EB422291610279016803EB42222C
S113030091620279016803EB4222916301790268E8
S113031003EB41239A60704700100E400279016894
S1130320074B03EB422291650279016803EB4222F9
S113033051640179026803EB41235A60704700BF9E
S113034000100E4002790168074B03EB422251650D
S11303500279016803EB422251640179026803EBDC
S113036041235A60704700BF00100E402DE9F84F3A
S11303708346924603790268164800EB43239A6544
S1130380DFF85890D9F8000043F2AF660027DFF891
S1130390508043F2B062002334463D46E1FB004501
S11303A020462946C0470C4DA8479BF80420DBF89B
S11303B00030084901EB42246365D9F8001043F288
S11303C0B0620023EAFB016730463946C047A847BC
S11303D0BDE8F88F00100E4001000020A4040020A6
S11303E00D09000030B585B0074C217860780023F2
S11303F003930122029201920092044DA84760786F
S1130400034B984705B030BD100000207D05000067
S1130410C50700002DE9F84F81462D4B9847484603
S1130420DFF8B8B0D847DFF8B880D8F80000024643
S113043000239000910F801859410018494143F25C
S1130440AF640025234F43F2B062002300196941D1
S1130450B847214EB0474846DFF888A0D047D8F8BF
S11304600000024600239000910F801859410018A3
S1130470494143F2B062002300196941B847B047CB
S11304804846D847D8F80000024600239000910F50
S1130490801859410018494143F2B0620023001901
S11304A06941B847B0474846D047D8F800200023F0
S11304B09000910F801859410018494143F2B062ED
S11304C0002300196941B847B047BDE8F88F00BF61
S11304D0ED0200000D090000010000201D030000D2
S11304E0A40400204503000000B583B00E4B9847D8
S11304F00E4B98470E4C201D0E4B9847B8238DF891
S113050007300D4B04F10C0204F1140160780B4C1C
S1130510A0470B4B98470B4E64250B4C2A462946A3
S11305203046A047FAE700BF750200004D05000001
S11305301000002015040000A08601000906000038
S1130540E50300002C0000206D030000074B93F826
S11305504C2042F0010283F84C20054A5A60054BB6
S11305601A600020044B1870704700BFAC050020CF
S113057038C10100A4040020A8040020F0B59DF8AF
S113058014609DF818E09DF81C709DF820504C00F4
S113059044EA0644BEF1000F1BD144F400440FB1F9
S11305A044F480440AB144F001040DB144F00074F1
S11305B0094D05EB801080F83610C36280F8306076
S11305C080F83120012380F82930C368DC600020E2
S11305D0F0BD44F42044E2E7AC04002030B4094AFE
S11305E04D006B18840104EB83031344002083F84B
S11305F02900D86283F8300083F8310083F82A0098
S113060030BC7047AC040020032802D94FF4D85002
S113061070472DE9F84F1E4690460F4604465D4B41
S113062003EB80195C4B53F82030C9F80C3089F87F
S113063008000021DFF888B1D84701212046D847B7
S1130640032389F80130032C04D8DFE804F0024CBA
S11306504E500425514B524A9A659A6A4FF001094B
S113066009FA05F515439D62DFF828B14FEA841AAB
S11306700BEB0A0505F1180397E8030083E8030070
S113068005F1200398E8030083E8030004236B705A
S11306903846444FB8474046B8471BF80A3043F041
S11306A002030BF80A306E60EB68C3F80090EB6845
S11306B080221A60EB683C4ADA623C4B1D68B5FB49
S11306C0F6F525FA09F0FF2813D900220132D2B237
S11306D0911CB5FBF1F0FF28F8D8072A0AD94FF48A
S11306E0D850BDE8F88F0625B4E71525B2E71625DE
S11306F0B0E700222E4B2F499E4218BF8E4211D0E4
S11307002D4B9E420ED02D4B9E422BD0214BA4014B
S113071019191A5D42F001021A5501234B70002089
S1130720BDE8F88F1B4B03EB8413DD684108130706
S113073003F0E043CFB23B43070407F47F073B4396
S1130740090201F47F410B436B601B4B9E42114B2A
S113075003EB8413DB680CBF4FF040514FF00051A2
S1130760D963D0E70B4E06EB8416F16845081307EE
S113077003F0E043EAB21343020402F47F0213439A
S11307802A0202F47F4213438B63F3684FF08052D2
S11307901A64BBE7AC0400203400002000000E40C3
S11307A0280000AA85020000087F0200A40400209B
S11307B0801A0600A086010040420F0040E1330089
S11307C0DD05000038B5044605464D4B03EB8013A8
S11307D0DA680121116093F82930002B3AD0484B94
S11307E003EB801393F83130C3B1454B03EB801313
S11307F093F8303053B30021414800EB8410C268B1
S1130800D36913F0010FFBD05269C36A5A54013102
S1130810C9B290F830308B42F1D817E0384B03EB73
S1130820801393F830308BB10021354800EB8410ED
S1130830C268D36913F0020FFBD0C36A5B5C936197
S11308400131C9B290F830308B42F1D800212046F2
S11308502C4B98472A4B03EB841393F83530002B29
S11308603AD0274B03EB841393F83D30C3B1244BA8
S113087003EB841393F83C3053B30021204B03EB78
S11308808515EA68D36913F0010FFBD05269AB6B8D
S11308905A540131C9B295F83C308B42F1D817E073
S11308A0174B03EB841393F83C308BB10021144BAA
S11308B003EB8515EA68D36913F0020FFBD0AB6B29
S11308C05B5C93610131C9B295F83C308B42F1D83D
S11308D0012120460B4B9847094B03EB8413DA683C
S11308E0D36903F02403242BFAD1074BD362044BBE
S11308F003EB8414E36802221A60002038BD00BFB1
S1130900AC040020DD050000087F020053B94AB999
S1130910002908BF00281CBF4FF0FF314FF0FF3003
S113092000F07AB9ADF1080C6DE904CE00F006F8D8
S1130930DDF804E0DDE9022304B070472DE9F04757
S11309408C460D460446089E002B51D18A42174618
S11309506DD9B2FA82FEBEF1000F0BD0CEF1200C9D
S113096001FA0EF520FA0CFC02FA0EF74CEA050C1B
S113097000FA0EF44FEA174A250CBCFBFAF81FFAEA
S113098087F90AFB18CC45EA0C4508FB09F3AB428E
S11309900AD9ED1908F1FF3280F02381AB4240F20D
S11309A02081A8F102083D44ED1AA4B2B5FBFAF087
S11309B00AFB105544EA054400FB09F9A14509D98D
S11309C0E41900F1FF3380F00A81A14540F2078168
S11309D002383C44A4EB090440EA08400021002EFC
S11309E061D024FA0EF4002334607360BDE8F0870C
S11309F08B4207D9002E54D0002186E821000846F6
S1130A00BDE8F087B3FA83F1002940F08E80AB4251
S1130A1002D3824200F2FA80841A65EB03050120B6
S1130A20AC46002E3FD086E81010BDE8F08712B91E
S1130A300127B7FBF2F7B7FA87FEBEF1000F34D1F6
S1130A40EB1B3A0C1FFA87FC0121B3FBF2F8250CCF
S1130A5002FB183345EA03450CFB08F3AB4207D904
S1130A60ED1908F1FF3002D2AB4200F2D18080468A
S1130A70ED1AA3B2B5FBF2F002FB105543EA0544AC
S1130A800CFB00FCA44507D9E41900F1FF3302D2A2
S1130A90A44500F2B8801846A4EB0C0440EA0840D0
S1130AA09DE731463046BDE8F087CEF1200405FAD3
S1130AB00EF307FA0EF720FA04F83A0C25FA04F4B8
S1130AC048EA0308B4FBF2F14FEA184502FB11446B
S1130AD01FFA87FC45EA044501FB0CF3AB4200FA1C
S1130AE00EF409D9ED1901F1FF3080F08A80AB4290
S1130AF040F2878002393D44EB1A1FFA88F5B3FBB4
S1130B00F2F002FB103345EA034500FB0CF3AB4261
S1130B1007D9ED1900F1FF386FD2AB426DD9023815
S1130B203D44EB1A40EA01418FE7C1F1200722FA64
S1130B3007F88B4005FA01F448EA030320FA07FE9C
S1130B404FEA134CFD404EEA040EB5FBFCF94FEAA4
S1130B501E440CFB19551FFA83F844EA054509FBAA
S1130B6008F4AC4202FA01F200FA01FA08D9ED18CD
S1130B7009F1FF3043D2AC4241D9A9F102091D4425
S1130B802D1B1FFA8EFEB5FBFCF00CFB10554EEA34
S1130B90054400FB08F8A04507D9E41800F1FF3527
S1130BA029D2A04527D902381C4440EA0940A4EBC5
S1130BB00804A0FB02894C45C6464D4615D312D005
S1130BC056B1BAEB0E0364EB050404FA07F7CB4005
S1130BD01F43CC40376074600021BDE8F08718469D
S1130BE0F8E69046E0E6C245EAD2B8EB020E69EBBD
S1130BF003050138E4E72846D7E7404691E78146F4
S1130C00BEE7014678E702383C4445E7084608E772
S1130C10A8F102083D442BE7704700BF70B50F4EA2
S1130C200F4D761BB61018BF002405D0013455F8BB
S1130C30043B9847A642F9D10A4E0B4D761B00F0AF
S1130C40A7F8B61018BF002406D0013455F8043BA9
S1130C509847A642F9D170BD70BD00BF9C0D00003D
S1130C609C0D0000A40D00009C0D0000024B13B16C
S1130C70024800F005B87047000000008D0C000029
S1130C80002301461A46184600F01EB838B50A4C2F
S1130C900A4D641BA4100AD004F18043013B05EB08
S1130CA08305013C55F804399847002CF9D1BDE877
S1130CB0384000F077B800BFB40D0000B00D00005C
S1130CC0704700BF704700BF2DE9F8432C4D06461E
S1130CD0286898460F469146FFF7F2FF294B1C6897
S1130CE0D4F84831002B3ED05A681F2A1CDC02F18C
S1130CF0010E76B103EB82010124C1F88890D3F888
S1130D00880194402043022EC3F88801C1F8088169
S1130D1023D00232C3F804E0286843F82270FFF7B6
S1130D20D1FF0020BDE8F883174B0BB34FF4C87014
S1130D30AFF300800346D8B1D4F848210260002103
S1130D4041600A46C4F848014FF0010EC0F888110A
S1130D50C0F88C11002EDCD0CCE7D3F88C110C43F6
S1130D60C3F88C41D5E704F5A673C4F84831BBE752
S1130D702868FFF7A7FF4FF0FF30BDE8F88300BFF6
S1130D80700400208C0D00000000000048000020CA
S1130D90F8B500BFF8BC08BC9E4670476D0C000057
S1130DA0A5010000F8B500BFF8BC08BC9E4670471A
S1070DB081010000B9
S10B0DB488FBFF7F0100000031
S1130DBCBFF35F8F0138FBD17047000038C10100CD
S1130DCC4F03000000000008020000000080000037
S1130DDC010200000040000001020000800000003D
S1130DEC020000000080014000C001400080074068
S1130DFC00C0074000000000000000003403002085
S1130E0C9C030020040400200000000000000000EB
S1130E1C00000000000000000000000000000000C2
S1130E2C00000000000000000000000000000000B2
S1130E3C00000000000000000000000000000000A2
S1130E4C0000000000000000000000000000000092
S1130E5C0000000000000000000000000000000082
S1130E6C0000000000000000000000000000000072
S1130E7C0000000000000000000000000000000062
S1130E8C0000000000000000000000000000000052
S1130E9C0000000000000000000000000000000042
S1130EAC01000000000000000E33CDAB34126DE6DF
S1130EBCECDE05000B000000000000000000000048
S1130ECC0000000000000000000000000000000012
S1130EDC0000000000000000000000000000000002
S1130EEC00000000000000000000000000000000F2
S1130EFC00000000000000000000000000000000E2
S107122CFC05002099
S9030000FC
